:100000000C94A3000C94CB000C94CB000C94CB006C
:100010000C94CB000C94CB000C94CB000C940D04EE
:100020000C94CB000C94CB000C94CB000C94CB0024
:100030000C94CB000C94CB000C94CB000C94CB0014
:100040000C94C3030C94CB000C94DF020C94B90203
:100050000C94CB000C94CB000C94CB000C94CB00F4
:100060000C9434050C94CB0007634236B79BD8A799
:100070001A39685618AEBAAB558C1D3CB7CC5763CD
:10008000BD6DEDFD753EF6177231BF000000803F7B
:1000900008000000BE922449123EABAAAA2ABECD97
:1000A000CCCC4C3E00000080BEABAAAAAA3E000009
:1000B0000000BF000000803F000000000008417801
:1000C000D3BB4387D1133D190E3CC3BD4282AD2B38
:1000D0003E68EC8276BED98FE1A93E4C80EFFFBE30
:1000E00001C4FF7F3F00000000000000000023006B
:1000F0002600290000000000240027002A0000003C
:100100000000250028002B00040404040404040457
:1001100002020202020203030303030301020408B2
:100120001020408001020408102001020408102061
:1001300000000008000201000003040700000000A6
:1001400000000000561611241FBECFEFD8E0DEBF1E
:10015000CDBF13E0A0E0B1E0E0EEF6E302C0059011
:100160000D92A831B107D9F725E0A8E1B3E001C0AD
:100170001D92AD3DB207E1F710E0C3EAD0E004C044
:100180002197FE010E94531BC23AD107C9F70E9472
:10019000AB090C946E1B0C940000FC01538D448D34
:1001A000252F30E0842F90E0821B930B541710F022
:1001B000CF96089501970895FC01918D828D98172F
:1001C00061F0828DDF01A80FB11D5D968C91928D3B
:1001D0009F5F9F73928F90E008958FEF9FEF089538
:1001E000FC01918D828D981731F0828DE80FF11D01
:1001F000858D90E008958FEF9FEF0895FC01918D1C
:10020000228D892F90E0805C9F4F821B91098F7314
:100210009927089587E194E00E94FE0021E0892B50
:1002200009F420E0822F0895FC01848DDF01A80FDE
:10023000B11DA35ABF4F2C91848D90E001968F730E
:100240009927848FA689B7892C93A089B1898C912D
:1002500080648C93938D848D981306C00288F389F3
:10026000E02D80818F7D80830895EF92FF920F9320
:100270001F93CF93DF93EC0181E0888F9B8D8C8D52
:10028000981305C0E889F989808185FD24C0F62E80
:100290000B8D10E00F5F1F4F0F731127E02E8C8D19
:1002A000E8120CC00FB607FCFACFE889F989808103
:1002B00085FFF5CFCE010E941401F1CF8B8DFE0199
:1002C000E80FF11DE35AFF4FF0820B8FEA89FB899B
:1002D0008081806207C0EE89FF896083E889F9899F
:1002E00080818064808381E090E0DF91CF911F91D5
:1002F0000F91FF90EF900895CF93DF93EC01888DDD
:100300008823C9F0EA89FB89808185FD05C0A88919
:10031000B9898C9186FD0FC00FB607FCF5CF80819F
:1003200085FFF2CFA889B9898C9185FFEDCFCE01E9
:100330000E941401E7CFDF91CF91089580E090E013
:10034000892B29F00E940A0181110C940000089564
:10035000833081F028F4813099F08230A1F0089543
:100360008730A9F08830B9F08430D1F480918000D2
:100370008F7D03C0809180008F77809380000895E7
:1003800084B58F7702C084B58F7D84BD0895809138
:10039000B0008F7703C08091B0008F7D8093B00054
:1003A00008953FB7F8948091B6039091B703A09158
:1003B000B803B091B90326B5A89B05C02F3F19F02B
:1003C0000196A11DB11D3FBFBA2FA92F982F8827D5
:1003D000820F911DA11DB11DBC01CD0142E0660F30
:1003E000771F881F991F4A95D1F7089585ED80934F
:1003F000BC008091BC0084FDFCCF1092F2030895F4
:1004000040918C03262F30E0240F311D213231051D
:10041000DCF42091F2032430C9F4FC0180E090E088
:10042000861758F430918C032191DC01A659BC4FFA
:10043000A30FB11D2C930196F3CF80918C03680F0D
:1004400060938C0380E0089581E0089582E0089530
:100450000895E091CB038091CA03E81730F4F0E0EF
:10046000E85EFC4F808190E008958FEF9FEF089544
:100470009091CB038091CA03981750F4E92FF0E0D4
:10048000E85EFC4F208130E09F5F9093CB0302C079
:100490002FEF3FEFC90108958091CA0390E02091AA
:1004A000CB03821B91090895CF92DF92EF92FF92C6
:1004B0000F931F93CF93DF937C01262F972F8A01F1
:1004C0008091F303882391F0C62FD72F6E01C40EBD
:1004D000D51ECC15DD0571F06991D701ED91FC9128
:1004E0000190F081E02DC7010995F3CF642F822F91
:1004F0000E940002C801DF91CF911F910F91FF90E0
:10050000EF90DF90CF900895CF93DF931F92CDB7F8
:10051000DEB769832091F3032223D1F020911604E2
:10052000203240F021E030E0FC013383228380E080
:1005300090E015C08091F403E82FF0E0EB50FC4F01
:10054000998190838F5F8093F4038093160405C094
:1005500061E0CE0101960E94000281E090E00F90E0
:10056000DF91CF910895089580E090E008950E9472
:10057000591B1F920F920FB60F9211242F933F9386
:100580004F935F936F937F938F939F93AF93BF939B
:10059000EF93FF9387E194E00E941401FF91EF91A4
:1005A000BF91AF919F918F917F916F915F914F918B
:1005B0003F912F910F900FBE0F901F9018951F9293
:1005C0000F920FB60F9211242F938F939F93EF9357
:1005D000FF93E0912704F09128048081E0912D049D
:1005E000F0912E0482FD12C09081809130048F5FC3
:1005F0008F7320913104821751F0E0913004F0E0C4
:10060000E95EFB4F958F8093300401C08081FF919C
:10061000EF919F918F912F910F900FBE0F901F9090
:1006200018951F93CF93DF93282F30E0F901E05DF9
:10063000FE4F8491F901E45EFE4FD491F901E85F29
:10064000FE4FC491CC23C9F0162F81110E94A8013E
:10065000EC2FF0E0EE0FFF1FE250FF4FA591B49199
:100660008FB7F894111105C09C91ED2FE095E92307
:1006700002C0EC91ED2BEC938FBFDF91CF911F91D6
:100680000895CF93DF9390E0FC01E45EFE4F249148
:10069000FC01E85FFE4F8491882361F190E0880FB0
:1006A000991FFC01EC50FF4FC591D491FC01E25021
:1006B000FF4FA591B491611109C09FB7F89488814B
:1006C000209582238883EC912E230BC0623061F445
:1006D0009FB7F8943881822F809583238883EC918B
:1006E0002E2B2C939FBF06C08FB7F894E8812E2B3A
:1006F00028838FBFDF91CF9108958F929F92AF9201
:10070000BF92CF92DF92EF92FF926B017C010E9429
:10071000D1014B015C01C114D104E104F104F1F0F9
:100720000E94D101DC01CB0188199909AA09BB09F2
:10073000883E9340A105B10570F321E0C21AD108AB
:10074000E108F10888EE880E83E0981EA11CB11C18
:10075000C114D104E104F10419F7DDCFFF90EF904B
:10076000DF90CF90BF90AF909F908F9008952FB75C
:10077000F8946091B2037091B3038091B4039091A7
:10078000B5032FBF08951F920F920FB60F92112439
:100790002F933F938F939F93AF93BF938091B20317
:1007A0009091B303A091B403B091B5033091B1031C
:1007B00023E0230F2D3720F40196A11DB11D05C0A4
:1007C00026E8230F0296A11DB11D2093B10380934B
:1007D000B2039093B303A093B403B093B503809195
:1007E000B6039091B703A091B803B091B9030196F5
:1007F000A11DB11D8093B6039093B703A093B803D6
:10080000B093B903BF91AF919F918F913F912F9179
:100810000F900FBE0F901F9018951F920F920FB65A
:100820000F9211242F933F934F935F936F937F9376
:100830008F939F93AF93BF93CF93DF93EF93FF93E8
:100840002091090530E0F901E05DFE4F8491F90146
:10085000E45EFE4FD491F901E85FFE4FC491CC23D2
:10086000A1F081110E94A801EC2FF0E0EE0FFF1F14
:10087000E651FF4FA591B491EC91ED2331E020E0DA
:1008800009F430E0832F922F02C080E090E02091A5
:100890000D0530910E052F5F3F4F30930E052093CD
:1008A0000D0520910C05253618F026E0209308054B
:1008B000209108052430D9F128F4223069F0233042
:1008C000D9F060C0253009F453C0263009F05AC071
:1008D00021E02093D90553C0009709F053C020911F
:1008E0000D0530910E052436310508F443C01092F1
:1008F000D90510920C051DC08130910509F042C048
:10090000E0910C0521E02E0F20930C05F0E02091E2
:100910000D0530910E05EE0FFF1FE85FFA4F30878F
:10092000278310920E0510920D0524E029C0009730
:10093000B9F4E0910C0521E02E0F20930C05F0E0B6
:1009400020910D0530910E05EE0FFF1FE85FFA4F65
:100950003087278310920E0510920D0523E010C0FA
:1009600020910D0530910E052536310558F007C050
:10097000009741F410920E0510920D0503C025E07A
:100980002093080520910B052223B9F0892B51F4FF
:1009900080910A05882321F080910A0561E009C051
:1009A0002D9A0BC080910A05882331F080910A05A9
:1009B00060E00E94110301C02D98FF91EF91DF913B
:1009C000CF91BF91AF919F918F917F916F915F91E7
:1009D0004F913F912F910F900FBE0F901F90189540
:1009E000CF92DF92EF92FF92CF93DF93EC01072E2D
:1009F000000C880B990B0E94AD166B017C0120E066
:100A000030E040E45FE30E940C1720E030E048E46F
:100A100052E40E94B8180E942A19C617D707D4F0CA
:100A200020E030E040EA5FE3C701B6010E940C1706
:100A300020E030E048E452E40E94B81820E030E0C2
:100A400040E85FE30E944C180E942A1921E06C17CD
:100A50007D070CF420E0822F90E0DF91CF91FF9092
:100A6000EF90DF90CF9008951F920F920FB60F92E4
:100A700011242F933F934F935F936F937F938F93A3
:100A80009F93AF93BF93EF93FF938091B900887FBB
:100A9000803609F49CC068F5883209F45BC090F494
:100AA000803109F454C038F4882309F4F6C0883042
:100AB00009F44DC0F6C0883109F44CC0803209F405
:100AC0005DC0EFC0803409F468C048F4803309F495
:100AD00055C0883309F0E5C08093F003D8C0803555
:100AE00009F44FC0883509F45DC0883409F0D9C0D5
:100AF000D6C0883909F4C7C0A8F4883709F467C09C
:100B000038F4883609F463C0803709F460C0C9C07E
:100B1000883809F4B8C0803909F45FC0803809F01A
:100B2000C0C05BC0803B09F486C038F4803A09F449
:100B300066C0883A09F47FC0B4C0803C09F4A7C0FD
:100B4000883C09F4A4C0883B09F48AC0AAC08091FB
:100B5000CD0310C09091EF038091EE03981770F5CC
:100B6000E091EF0381E08E0F8093EF03F0E0E2531A
:100B7000FC4F80818093BB0085EC86C08093F0039E
:100B80008EC0E091EF0381E08E0F8093EF038091A0
:100B9000BB00F0E0E253FC4F80839091EF03809123
:100BA000EE036EC0E091EF0381E08E0F8093EF03C0
:100BB0008091BB00F0E0E253FC4F80838091F10311
:100BC00081116DC081E08093CC0384EA61C083E031
:100BD0008093F2031092B003CFCF8091B0038032A4
:100BE00008F051C0E091B00381E08E0F8093B00314
:100BF0008091BB00F0E0E057FC4F8083BDCF85ECD7
:100C00008093BC001092F2038091B003803230F4E4
:100C1000E091B003F0E0E057FC4F10826091B00328
:100C200070E0E0918E03F0918F0380E993E00995E5
:100C30001092B00336C084E08093F20310928D03CB
:100C400010928C03E0918A03F0918B0309958091B7
:100C50008C03811105C081E080938C0310926A039C
:100C6000E0918D0381E08E0F80938D03F0E0E659D3
:100C7000FC4F80818093BB0090918D0380918C0309
:100C8000981708F479CF85E88093BC000AC085ECFA
:100C90008093BC001092F20304C01092F0030E94F3
:100CA000F601FF91EF91BF91AF919F918F917F914D
:100CB0006F915F914F913F912F910F900FBE0F90C9
:100CC0001F901895CF93DF93EC010E94B7036093B8
:100CD00038037093390380933A0390933B0360E0A9
:100CE00085E00E941103C930D105ACF4BE01DD0FCF
:100CF000880B990B0E94AD169B01AC0160E070E07F
:100D000080E090E40E9460190E943119862F0E94B1
:100D1000720780E017C08FEF0E947207BE01685013
:100D20007109072E000C880B990B0E94AD169B01D0
:100D3000AC0160E070E080E090E40E9460190E94E5
:100D40003119862F0E94720761E085E00E9411032D
:100D500081E0809369030E94B70360933803709326
:100D6000390380933A0390933B0361E082E0DF9183
:100D7000CF910C94110360E085E00E94110380E0A4
:100D80000E94720780E00E94720761E085E00E9485
:100D9000110360E082E00C941103CF92DF92EF9296
:100DA000FF920F931F93CF93DF938C016B01770F0B
:100DB000EE08FF08C701B6010E947D03C0E0D0E045
:100DC000C017D10774F560E085E00E9411038FEF32
:100DD0000E9472078FEF0E94720761E085E00E9417
:100DE000110360E082E00E941103C701B6010E9476
:100DF0007D0360E085E00E94110380E00E9472079D
:100E000080E00E94720761E085E00E94110361E0CA
:100E100082E00E941103C701B6010E947D03219662
:100E2000CFCFDF91CF911F910F91FF90EF90DF9087
:100E3000CF900895CF92DF92EF92FF920F931F937E
:100E4000CF93DF936C017A018B01C0E0D0E0CE1527
:100E5000DF0589F0D8016D918D01D601ED91FC91EE
:100E60000190F081E02DC6010995892B11F47E01D6
:100E700002C02196ECCFC701DF91CF911F910F9156
:100E8000FF90EF90DF90CF900895E7E1F4E0A08924
:100E9000B18982E08C93A485B5851C92A685B7851F
:100EA0008FEC8C93108EA489B58986E08C93A289EF
:100EB000B3898C9180618C93A289B3898C9188606D
:100EC0008C93A289B3898C9180688C930288F38972
:100ED000E02D80818F7D80830895682F8CEF94E0D2
:100EE0000C9484020F931F93CF93DF93082F61E03C
:100EF00087E00E94410361E086E00E94410360E0D8
:100F000086E00E94110360E087E00E941103C7E0C1
:100F1000D0E010E060E087E00E941103B8010C2EE1
:100F200002C0759567950A94E2F76170772786E0AD
:100F30000E94110361E087E00E94110360E086E0F7
:100F40000E941103219730F760E087E0DF91CF9195
:100F50001F910F910C941103382F2091160490913A
:100F60001504213208F049C08091F2038111FCCFB1
:100F700042E04093F2033093F1033FEF3093F003EC
:100F80001092EF032093EE03A5EFB3E04EEC53E095
:100F9000FA013E2F341B321718F43D913193F9CFEB
:100FA0001092CD032091CD03990F922B9093CD03F6
:100FB0009091CC03913061F41092CC039091CD03C9
:100FC0009093BB009091BC0093FDF8CF95EC01C0CD
:100FD00095EE9093BC009091F2039230E1F39091E2
:100FE000F0039F3F79F08091F003803241F08091CF
:100FF000F003803331F084E005C081E003C082E07B
:1010000001C083E01092F403109216041092F303CF
:1010100008951092CB031092CA031092F403109219
:1010200016041092F20381E08093F1031092CC0336
:1010300061E082E10E94110361E083E10E941103FB
:10104000E9EBF0E080818E7F808380818D7F8083DB
:1010500088E48093B80085E48093BC000895CF9322
:10106000C62F9091DC0521E02093F30390931504A3
:101070001092F40310921604682F8CEF94E00E94F3
:1010800084026C2F8CEF94E00E94840281E0CF9167
:101090000C94AC078F929F92AF92BF92CF92DF9247
:1010A000EF92FF920F931F93CF93DF93FC01C081C8
:1010B000D1812091C6033091C703C217D3070CF02A
:1010C0004BC09E01220F331FE091C403F091C50372
:1010D000E20FF31F80809180C170DD27F1E0CF2700
:1010E000209719F404E610E002C00CE91FEF7A0122
:1010F0005B016C01040F151FB801C4010E94F004CC
:10110000892B99F40E0D1F1DB801C4010E94F00433
:10111000892B71F4B8016E0D7F1DC4010E94F0048B
:10112000892BE9F023E030E005C021E030E002C087
:1011300022E030E0F50180819181019682179307CA
:101140003CF0F50111821082F601808191810196B7
:1011500091838083CE0105C081E090E002C08FEFD3
:101160009FEFDF91CF911F910F91FF90EF90DF9054
:10117000CF90BF90AF909F908F90089561157105AB
:1011800079F0FB0101900020E9F73197AF01461B90
:10119000570BDC01ED91FC910280F381E02D099465
:1011A00080E090E008954F925F926F927F92EF926D
:1011B000FF920F931F93CF93DF93CDB7DEB7A19725
:1011C0000FB6F894DEBF0FBECDBF7C01FA01CB0194
:1011D00019A2223008F42AE08E010F5D1F4F422E23
:1011E000512C612C712CBF01A30192010E94F017B8
:1011F000F901CA01015011096A3014F4605D01C09F
:10120000695CD8016C93232B242B252B61F7B80143
:10121000C7010E94BE08A1960FB6F894DEBF0FBEAC
:10122000CDBFDF91CF911F910F91FF90EF907F90F5
:101230006F905F904F900895CF93DF9300D0CDB71C
:10124000DEB76A8389830E94090891E09093F303D3
:1012500094E4909315041092F403109216046A819A
:101260008981862B90E00E946D0781E00E94AC0787
:10127000482F50E060E070E02AE087E194E00E94AF
:10128000D30864E371E087E194E00E94BE086AE05D
:1012900070E080E090E00F900F90DF91CF910C9480
:1012A0007D03803408F08FE36FE3681B80E00C94CB
:1012B0001C09893F2FEF920744F09C01089714F016
:1012C00027E030E037FF05C002C029EF3FEF67E0BD
:1012D0000BC0A9EFBFEF0E94F91A27E030E040E011
:1012E00050E00E9412186FE0620F80E70C941C0916
:1012F000893F2FEF920744F09C01089714F027E0F4
:1013000030E037FF05C002C029EF3FEF67E00BC0B8
:10131000A9EFBFEF0E94F91A27E030E040E050E06B
:101320000E9412186FE0620F80E60C941C090F9364
:101330001F93CF93DF93EC010E94BE088C0164E3FE
:1013400071E0CE010E94BE08800F911FDF91CF9106
:101350001F910F910895CF93DF93CDB7DEB72C97F0
:101360000FB6F894DEBF0FBECDBF789484B582600F
:1013700084BD84B5816084BD85B5826085BD85B539
:10138000816085BD80916E00816080936E001092B7
:101390008100809181008260809381008091810032
:1013A00081608093810080918000816080938000C3
:1013B0008091B10084608093B1008091B000816021
:1013C0008093B00080917A00846080937A0080914D
:1013D0007A00826080937A0080917A0081608093A5
:1013E0007A0080917A00806880937A001092C10020
:1013F0001092F8041092F9041092FA041092FB046F
:101400001092B6041092B7041092B8041092B90466
:101410000E94B7036B017C014B015C0128EB820E3B
:101420002BE0921EA11CB11C0E94B7036C157D0518
:101430008E059F0528F086169706A806B906A0F720
:1014400087E194E09093F7048093F6040E944507A7
:101450000E94B7036093B6047093B7048093B804F6
:101460009093B90465E271E08091F6049091F704DD
:101470000E94BE080E94B7036B017C014B015C0116
:101480003AE0830E911CA11CB11C0E94B7036C159D
:101490007D058E059F0528F086169706A806B906D5
:1014A000A0F711E01093CA0410925D0310925E033E
:1014B00010925F0310926003109238031092390368
:1014C00010923A0310923B0364EF71E080E090E0E9
:1014D0000E947D030E94450767E371E087E194E085
:1014E0000E949709109251031093530382E0809356
:1014F000520384E08093540388E08093550380E195
:101500008093560380E28093570380E480935803CE
:1015100080E8809359038EE3E82E83E0F82E00E400
:1015200010E0C8010E94CA17D7018D937D010F5F9B
:101530001F4F02351105A9F76DE471E08EE393E0CA
:101540000E945E1B892BE9F06DE471E08EE393E06D
:101550000E94671B109246031092470387E090E0B9
:10156000909349038093480310924B0310924A03CF
:1015700010924D0310924C0360E082E590E00E94CF
:10158000D2170E94090881E08093F30384E48093DA
:1015900015041092F4031092160480E490E00E9467
:1015A0006D0780E090E00E946D0780EE90E00E9461
:1015B0006D0781E00E94AC0761E085E00E94410375
:1015C00061E086E00E94410361E087E00E94410300
:1015D00061E08BE00E94410361E08CE00E944103E6
:1015E00061E082E00E94410361E08CE00E9411030F
:1015F00061E08BE00E941103F89482E08093B000D8
:101600008093B10094E69093B3001092B20080935F
:10161000700078948093080510920C05809109055C
:1016200060E00E94410365E571E087E194E00E947B
:10163000970960914703643008F063E08CE50E94ED
:101640001C09809148030E945109C0904803D09022
:1016500049030D2C000CEE08FF08C701B6010E94DB
:10166000AD1626E636E646E850E40E94B8180E9419
:101670002A1970933D0360933C03F7FE14C0E09178
:101680001704F09118040190F081E02D6DE287E1DC
:1016900094E0099544275527BA014C195D096E0954
:1016A0007F092AE003C02AE0B701A60187E194E0A0
:1016B0000E94D30864E371E087E194E00E94BE08D1
:1016C00080914A0390914B030E94780980914C03CA
:1016D00090914D030E94590960E080EC0E941C0922
:1016E00060E080EE0E941C090E94BB0669E671E082
:1016F00087E194E00E9497090E9409088AE5809397
:10170000DC0563E680E80E942F0861E070E080E07D
:1017100090E00E947D0360E08EE50E942F0880919A
:10172000DC0591E09093F303809315041092F40389
:10173000109216046DE58CEF94E00E94840280E024
:101740000E94AC0791E03FEF45EE55EC68E173E095
:101750008091DC052091F2032111FCCF9093F203DC
:101760009093F1033093F0031092EF031092EE0385
:101770009093CD032091CD03880F822B8093CD03CE
:101780008091CC03813069F41092CC038091CD0319
:101790008093BB008091BC0083FDF8CF5093BC00C8
:1017A00002C04093BC008091F2038130E1F380914C
:1017B000EF03811103C08091EF0301C081E0AEEC23
:1017C000B3E0E8E1F3E02E2F261B281718F42D9143
:1017D0002193F9CF1092CB038093CA03813009F093
:1017E000B7CF8CEF94E00E943802843209F0A9C48C
:1017F00011E46CE0812F0E942F0866E081E0810FE8
:101800000E942F081E5F1935A1F761E08BE20E944C
:101810002F0861E08CE20E942F086EE08DE20E94AA
:101820002F0860E08EE20E942F0861E08FE20E94A4
:101830002F0865E080E30E942F0861E081E30E94A9
:101840002F0860E082E30E942F0860E083E30E949B
:101850002F0860E084E30E942F0860E085E30E9487
:101860002F0860E08BE50E942F0860E18CE50E9464
:101870002F0860E28DE50E942F086FE88EE50E9438
:101880002F0866E971E087E194E00E94970910E271
:10189000212E312C44244A94542C32010E94B70347
:1018A000672B682B692B41F40E94B70362307105E6
:1018B0008105910508F415C10E94B7036093650383
:1018C00070936603809367039093680300916103AC
:1018D00010916203209163033091640360177107D4
:1018E0008207930740F460936103709362038093CF
:1018F000630390936403009161031091620320914C
:101900006303309164036B017C01C01AD10AE20ABF
:10191000F30A970186010A3F11052105310508F4F4
:10192000E0C06093610370936203809363039093BC
:10193000640384EF91E0A0E0B0E08093C204909350
:10194000C304A093C404B093C5041092C6041092BB
:10195000C7041092C8041092C9048091BA049091EF
:10196000BB04A091BC04B091BD048093BE049093CD
:10197000BF04A093C004B093C1040E94B703609356
:10198000BA047093BB048093BC049093BD040E947E
:10199000B7036093B6047093B7048093B804909330
:1019A000B9040E94B7036B017C0164EA71E0809185
:1019B000F6049091F7040E94BE082AE041E050E04E
:1019C00060E070E08091F6049091F7040E94D308E3
:1019D0006BEA71E08091F6049091F7040E94BE08D2
:1019E0002AE0B701A6018091F6049091F7040E94C5
:1019F000D3086DEA71E08091F6049091F7040E949B
:101A0000BE088091BA049091BB04A091BC04B0912F
:101A1000BD04B701A601481B590B6A0B7B0B2AE0DA
:101A20008091F6049091F7040E94D3086DEA71E06A
:101A30008091F6049091F7040E94BE084091BA0488
:101A40005091BB046091BC047091BD048091BE04B0
:101A50009091BF04A091C004B091C104481B590BE0
:101A60006A0B7B0B2AE08091F6049091F7040E94A8
:101A7000D3086FEA71E08091F6049091F7040E9418
:101A8000BE080E94B703AB01BC012AE08091F604B6
:101A90009091F7040E94D30861EB71E08091F60405
:101AA0009091F7040E9497090E94B7034B015C01D3
:101AB0006B017C0195E0C90ED11CE11CF11C0E9458
:101AC000B703681579058A059B0508F041C30E9494
:101AD000B7036093BA047093BB048093BC049093E3
:101AE000BD04C0903803D0903903E0903A03F090E1
:101AF0003B03C114D104E104F104F9F00E94B703DF
:101B000060935D0370935E0380935F039093600323
:101B1000A8E8CA0EA3E1DA1EE11CF11C6C157D05D4
:101B20008E059F0550F010923803109239031092E1
:101B30003A0310923B030E94BB06EFE0F5E0F093FE
:101B4000C503E093C40380910C0590E09093C70314
:101B50008093C6038091D90590E09093C903809348
:101B6000C80380910805853009F09EC28091110557
:101B700090911205885891098D35910588F48091CE
:101B80000C05843041F480911305909114058097E1
:101B9000479708F4FDC280910C05843408F0DFC239
:101BA00080910C058A3108F44FC080910F05909107
:101BB0001005843F914068F41092C3031092C20351
:101BC0004092BE035092BF036092C0037092C10363
:101BD00059C0809111059091120585974B97A0F5FA
:101BE000E5E1F5E022E030E0C12CD12C7601C9011D
:101BF000019640910C0550E0841795075CF4DF01D5
:101C000012974D915C91475051094730510508F4A6
:101C100001C301C0C9010197959587959093C303AE
:101C20008093C2030C972CF41092C3031092C2034A
:101C30000BC0C092BE03D092BF03E092C003F092EB
:101C4000C10384E090E0BBC380910C058A3108F4A5
:101C50004AC080910F05909110058032934008F49E
:101C6000ABCF8091110590911205C697869708F425
:101C7000EBC239C0C092BE03D092BF03E092C00352
:101C8000F092C1038BE090E09AC3808191818597A7
:101C90004B9708F0EBC2CC0CDD1CEE1CFF1C6894CB
:101CA000C0F82E5F3F4F3496C901019640910C0554
:101CB00050E0841795070CF0D7C2DF0112974D91C1
:101CC0005C914C5051094B305105F8F201979595B4
:101CD00087959093C3038093C2030C975CF6109290
:101CE000C3031092C20380910C05823208F44DC0E8
:101CF00080911105909112050697079708F045C04D
:101D0000E5E1F5E082E090E0C12CD12C76019C0168
:101D10002F5F3F4F40910C0550E024173507E4F446
:101D2000DF0112974D915C9111974E515109473146
:101D3000510508F0A6C2CC0CDD1CEE1CFF1C6894FB
:101D4000C0F84081518134964350510945305105C6
:101D500010F40296DCCFC901019795958795909371
:101D6000C3038093C20340972CF41092C3031092D4
:101D7000C2030BC0C092BE03D092BF03E092C00367
:101D8000F092C1038CE090E01AC31C821B8281E0B8
:101D900090E09A83898380910C058D3008F46BC0A4
:101DA00049E753E0BE016D5F7F4FCE0101960E946F
:101DB0004A08892B09F05FC049E753E0BE016D5F17
:101DC0007F4FCE0101960E944A08019709F053C047
:101DD00049E753E0BE016D5F7F4FCE0101960E943F
:101DE0004A08892B09F047C0812C912C540100E04E
:101DF00010E080910C0590E029813A81281739077D
:101E00005CF549E753E0BE016D5F7F4FCE0101965F
:101E10000E944A087C0149E753E0BE016D5F7F4F95
:101E2000CE0101960E944A08A1E0EA16F10449F4A5
:101E3000892B09F5880C991CAA1CBB1C689480F896
:101E400008C0EF28C1F40197B1F4880C991CAA1CB2
:101E5000BB1C0F5F1F4FCDCF1093C3030093C20372
:101E60008092BE039092BF03A092C003B092C103C0
:101E700081E090E0A4C21C821B8281E090E09A8302
:101E800089838091C6039091C703181619060CF038
:101E900059C0E091C403F091C50382E090E09A83B9
:101EA00089838281938189974E9708F04BC003E024
:101EB000C02ED12CDA82C982848195810B970A9732
:101EC00008F040C04CEB51E0BE016D5F7F4FCE018A
:101ED00001960E944A08892BA9F54CEB51E0BE01FE
:101EE0006D5F7F4FCE0101960E944A08019751F520
:101EF000812C912C540100E010E029813A818091DD
:101F0000C6039091C703281739070CF0FDC14CEBAD
:101F100051E0BE016D5F7F4FCE0101960E944A08DD
:101F20006C010330110509F0B9C14CEB51E0BE0161
:101F30006D5F7F4FCE0101960E944A08C816D906F0
:101F400009F4ACC1E091C403F091C503828193818F
:101F5000C697869708F0F4C1848195814B97459781
:101F600008F0EEC1DF0116967F0126ECE20EF11CAF
:101F700020E030E040E050E060E070E080E090E0A1
:101F80000D911C911197095011090830110508F0A5
:101F9000D7C112960D911C911397015111090D3063
:101FA000110508F0C0C101E00E94081B21601496D1
:101FB000AE15BF0529F72093BE033093BF034093AE
:101FC000C0035093C10300E20E94231B2093BC0373
:101FD0003093BD0385E090E09093BB038093BA03F8
:101FE00080E390E09093C3038093C20364E671E0C2
:101FF00087E194E00E9497098091BE039091BF030E
:10200000A091C003B091C1038B319642A841B34E59
:1020100009F041C068EB71E087E194E00E94970904
:1020200080915003882309F4CFC161E08CE00E94C5
:1020300011036BEC71E087E194E00E94970960ED79
:1020400077E080E090E00E947D0361E08BE00E94F9
:1020500011036EED71E087E194E00E94970980E042
:102060000E945109109250038EE3E82E83E0F82E6F
:1020700000E410E0D7016D917D01C8010E94D217E4
:102080000F5F1F4F02351105A9F764EF71E081E082
:1020900090E00E94CD06809150038111C3C182E07F
:1020A0008093080510920C0580915C03882309F445
:1020B0003FC02091000180915A0390915B0322233D
:1020C00051F0019690935B0380935A03409774F00C
:1020D000109200010BC0019790935B0380935A0309
:1020E000181619061CF081E08093000160E085E07D
:1020F0000E94110380915A0390915B0369E070E0A4
:102100000E94E51A8C010F5A1C4F672B31F4D8013D
:102110008C910E94720780E005C080E00E947207E7
:10212000F80180810E94720761E085E00E9411033E
:102130006EE170E080E090E00E947D030E949E01CD
:10214000ADCB67EF72E087E194E00E94970999CBED
:10215000C616D706E806F90608F0B1CCB8CC8091CF
:10216000130590911405825491098E9708F018CDAB
:1021700080E090E040E050E0BA01FC01EB5EFA4FF5
:10218000208131812950310929303105B0F008CD45
:1021900080911505909116050997099708F0FBCCD9
:1021A0001092C3031092C2034092BE035092BF0329
:1021B0006092C0037092C10371C2FC01E95EFA4FE4
:1021C000208131812751310922313105B0F4440F8A
:1021D000551F661F771F416004968038910569F688
:1021E0003092C3032092C2034093BE035093BF03B7
:1021F0006093C0037093C10351C220813181265086
:1022000031092730310508F0CBCC440F551F661F2C
:10221000771FE2CF8081918143970F9750F4CC0CC8
:10222000DD1CEE1CFF1C6894C0F82E5F3F4F3496F7
:10223000DECC808191810A97099708F005CDCC0CFE
:10224000DD1CEE1CFF1CF1CF80911305909114054D
:10225000C697869708F047CDE7E1F5E023E030E048
:10226000C12CD12C760120CDC90130CD8081918146
:102270000C970A9708F037CDCC0CDD1CEE1CFF1C28
:1022800010CD4D915C914C5051094B30510508F0E7
:102290007CCDCC0CDD1CEE1CFF1C53CD4CEB51E077
:1022A000BE016D5F7F4FCE0101960E944A087C01FE
:1022B0000330110569F44CEB51E0BE016D5F7F4FB7
:1022C000CE0101960E944A08E816F90609F03ACEB6
:1022D000C114D10459F4EA94EF2809F033CE880CE4
:1022E000991CAA1CBB1C689480F80BC0CA94CD280A
:1022F00009F028CEEF2809F025CE880C991CAA1CDD
:10230000BB1C0F5F1F4FF9CD1093C3030093C20393
:102310008092BE039092BF03A092C003B092C1030B
:1023200082E090E04CC012960D911C9113970450DE
:1023300011090530110520F401E00E94081B37CE79
:1023400080910C05893340F08281938189579109EE
:102350008335910508F4C0C280910C05823209F4DE
:10236000A5C182819381895791098335910508F42C
:1023700034C3828193818C549109C59708F0A2C11E
:1023800080910C05843009F098C1848195818097F3
:10239000479708F092C1868197810997099708F0BD
:1023A0008CC11092C3031092C2034092BE0350929C
:1023B000BF036092C0037092C10387E090E09093E6
:1023C000BB038093BA0312CE60E08BE00E9411033E
:1023D0006FEE71E087E194E00E94970968EC70E08D
:1023E00082E090E00E94CD0668EE73E080E090E02D
:1023F0000E947D0360E08CE00E9411036FEF71E0AA
:1024000087E194E00E94970964EF71E081E090E039
:102410000E94CD06809148030E94510981E080937B
:10242000500339CE8091BE039091BF03A091C003A9
:10243000B091C1038F31E4ED9E07E3EAAE07E2E518
:10244000BE0709F463C040F58B3B2DE492072EEFE5
:10245000A20720E2B20709F463C070F48B3BEDE100
:102460009E07E1E5AE07B105E9F18F39974EA94422
:10247000B44009F4DDC0F8C0873F23EE92072AE993
:10248000A2072DE3B20709F49AC08B3B9C43AF48E7
:10249000B84409F4BDC0E8C08B31EBE49E07E8EE18
:1024A000AE07E7EDBE07C9F178F48B3122E0920761
:1024B00022E8A20721E6B20709F491C08B3D9D4EA8
:1024C000A84CB34A81F1D0C08F37EDEB9E07EFECFB
:1024D000AE07E5EEBE07D9F18F379D46A848BE4E40
:1024E00021F0C2C061E172E013C064E272E087E1F2
:1024F00094E00E94970980915C03811132C080E0D2
:102500000E94510981E080935C03C9CD65E372E0CC
:1025100087E194E00E949709C2CD6AE472E0F8CFA7
:102520006CE572E0F5CF67E672E087E194E00E9427
:10253000970980915C03811114C060913C037091F4
:102540003D0316161706B4F5615071091AC068E705
:1025500072E087E194E00E94970980915C038823F0
:1025600039F0809148030E94510910925C0322C007
:1025700060913C0370913D036E307105DCF46F5F38
:102580007F4F70933D0360933C03072E000C880B34
:10259000990B0E94AD1626E636E646E850E40E9406
:1025A0000C170E942A19862F6093480370934903E1
:1025B0000E94510980913C0390913D0352C069E80B
:1025C00072E087E194E00E94970980914A0390911C
:1025D0004B038A3F2FEF9207B4F001970EC06FE9CB
:1025E00072E087E194E00E94970980914A039091FC
:1025F0004B03873091053CF4019690934B038093F5
:102600004A030E94780980914A0390914B0328C0A5
:1026100064EB72E087E194E00E94970980914C039B
:1026200090914D038A3F3FEF9307B4F001970EC09E
:102630006CEC72E087E194E00E94970980914C0372
:1026400090914D03873091053CF4019690934D0392
:1026500080934C030E94590980914C0390914D0343
:1026600008960E9462061BCD64EE72E087E194E05A
:102670000E94BE084091BE035091BF036091C00309
:102680007091C10320E187E194E00E94D30864E3E4
:1026900071E087E194E00E94BE0801CD83E0C82E7E
:1026A000D12CD092BB03C092BA03A0CC828193817B
:1026B0000A97099708F46FC154CE80910C058434B1
:1026C00008F0F0C180910C05863460F1828193811D
:1026D0000C970B9708F435C225C0D90112966D915D
:1026E0007C9113976E5171096731710508F05FC2D3
:1026F000D701C601880F991FAA1FBB1F6C017D015E
:102700006894C0F84E5F5F4F2C5F3F4F45345105D2
:1027100009F432C2D9016D917C916C5071096B3012
:102720007105D8F280910C05883578F1828193810A
:10273000855891098B35910508F449C226C0BC0122
:102740006F5F7F4FD8014D915C91475051094730E1
:10275000510508F04BC2220F331F216002960C5F17
:102760001F4F40910C0550E04450510984179507C4
:102770000CF045C2A80142505109DA014D915C911B
:102780004950510948305105D0F280910C058032F2
:10279000E1F48281938106970697B8F4848195814C
:1027A0000997099790F49F012A5F3F4FBF01625C30
:1027B0007F4FC12CD12C7601D9014D915C914650AF
:1027C00051094630510508F436C2C090C603D09076
:1027D000C703D886CF829601263031050CF45FCC32
:1027E0008F010A5F1F4F83E090E09E838D8325EC6D
:1027F000C22E2DE9D22E2CE1E22E21E8F22ED801B4
:102800006D917C91F8013497A080B18080E090E0D8
:102810000E94AB1669877A878B879C87B50180E019
:1028200090E00E94AB164B015C012DEC3CEC4CE4BB
:102830005FE30E940C179B01AC0169857A858B854B
:102840009C850E94A61687FD19C02DEC3CEC4CE43B
:102850005FE369857A858B859C850E940C179B01B7
:10286000AC01C501B4010E94A616E82F880FFF0B2A
:10287000EE27FF0FEE1FFF27319602C0E0E0F0E0E9
:10288000A701960163E971E080E091E00E94E01702
:102890006F01FF0FEE08FF08C626D726E826F926A7
:1028A000ED81FE813196FE83ED830E5F1F4F2F81F8
:1028B0003885E217F30709F0A2CFC092BE03D09289
:1028C000BF03E092C003F092C1033092C303209291
:1028D000C2038FEF9FEF73CD84819581CA9789974B
:1028E00008F03ACD9F012A5F3F4FC12CD12C7601D1
:1028F00043E050E0D9016D917C916A5071096930D3
:10290000710508F029CDD90112966D917C9113972C
:10291000665171096131710570F5D701C601880FE3
:10292000991FAA1FBB1F6C017D016894C0F84E5F00
:102930005F4F2C5F3F4F4B335105E1F69F012A5803
:102940003F4FD9012D913C912A5031092930310551
:1029500008F002CD2CE130E03093C3032093C20392
:10296000C092BE03D092BF03E092C003F092C103B5
:102970008AE090E024CDD90112966D917C91139755
:10298000665071096730710508F0E6CCCC0CDD1C8F
:10299000EE1CFF1CCCCF20910C05CF01820F911DA6
:1029A000820F911DDC0112978D919C910A970997D6
:1029B00008F0D7CC1092C3031092C2034092BE031A
:1029C0005092BF036092C0037092C103E6E0F0E052
:1029D000F093BB03E093BA0309CB80910C058132DD
:1029E00008F4C7CC84819581CA97899708F0C1CC37
:1029F0009F012A5F3F4FC12CD12C760143E050E06C
:102A0000D9016D917C916A5071096930710508F0A6
:102A1000B0CCD90112966D917C91139766517109D2
:102A20006131710578F5D701C601880F991FAA1F7A
:102A3000BB1F6C017D016894C0F84E5F5F4F2C5F37
:102A40003F4F43325105E1F69F012A5B3F4FD901C9
:102A50002D913C912A5031092930310508F089CC5B
:102A6000E0E1F0E0F093C303E093C203C092BE0341
:102A7000D092BF03E092C003F092C10356E0C52E8E
:102A8000D12C0FCED90112966D917C91139766507F
:102A900071096730710508F06CCCCC0CDD1CEE1CA4
:102AA000FF1CCBCF8481958189549109C39708F08D
:102AB00009CE9F012A5F3F4FBF016A577F4FC12C4C
:102AC000D12C7601D9014D915C9149505109493081
:102AD000510508F0F7CDD90112964D915C911397ED
:102AE0004651510941315105E0F4D701C601880F23
:102AF000991FAA1FBB1F6C017D016894C0F82C5F51
:102B00003F4F26173707F1F63092C3032092C203D6
:102B1000C092BE03D092BF03E092C003F092C10303
:102B20004CCCD90112964D915C91139746505109A6
:102B30004730510508F0C6CDCC0CDD1CEE1CFF1C47
:102B4000DECF848195810997099708F0EBCD8681C6
:102B500097818C974F9708F0E5CD8085918589976F
:102B60004D9708F0DFCD9F01265F3F4FC12CD12C40
:102B7000760145E050E0CECD9F0126573F4FD90169
:102B80002D913C912C5031092B30310508F0CACDE4
:102B90003092C3032092C203C092BE03D092BF03FF
:102BA000E092C003F092C10388E090E008CCD90124
:102BB00012966D917C911397695071096930710576
:102BC00008F0B0CDCC0CDD1CEE1CFF1C9BCD84812D
:102BD0009581825491098E9708F0D7CD8F01045CBE
:102BE0001F4F8DE190E020E030E0BBCDD8014D914A
:102BF0005C914851510942315105D0F0CB01019708
:102C0000959587959093C3038093C2038A970CF49C
:102C1000BCCDC901330FAA0BBB0B8093BE039093AD
:102C2000BF03A093C003B093C10389E090E0C7CB7A
:102C3000220F331F93CDD90112964D915C911397BA
:102C4000495151094331510508F5D701C601880F93
:102C5000991FAA1FBB1F6C017D016894C0F82C5FEF
:102C60003F4F2617370709F0A7CD2EE030E030930D
:102C7000C3032093C203C092BE03D092BF03E0926D
:102C8000C003F092C1038FE090E099CBD901129676
:102C90004D915C911397495051094930510508F005
:102CA00094CDCC0CDD1CEE1CFF1CD9CFE7E1F4E089
:102CB0001382128288EE93E0A0E0B0E084839583D3
:102CC000A683B78325E031E03183208325EC30E013
:102CD0003587248724EC30E03787268720EC30E0E6
:102CE000318B208B21EC30E0338B228B22EC30E0D7
:102CF000358B248B26EC30E0378B268B118E128E91
:102D0000138E148EE4EBF4E016821782108611867F
:102D1000128613861486158616861786108A118ADF
:102D2000128A138A148A158AECEFF4E01382128255
:102D300084839583A683B78387E191E09183808321
:102D4000E8E0F5E083E08183138208950E94E816AD
:102D500008F481E00895E89409C097FB3EF490954B
:102D60008095709561957F4F8F4F9F4F9923A9F064
:102D7000F92F96E9BB279395F695879577956795F3
:102D8000B795F111F8CFFAF4BB0F11F460FF1BC037
:102D90006F5F7F4F8F4F9F4F16C0882311F096E9CA
:102DA00011C0772321F09EE8872F762F05C0662378
:102DB00071F096E8862F70E060E02AF09A95660F31
:102DC000771F881FDAF7880F9695879597F90895EA
:102DD000990F0008550FAA0BE0E8FEEF161617062C
:102DE000E807F907C0F012161306E407F50798F094
:102DF000621B730B840B950B39F40A2661F0232BAD
:102E0000242B252B21F408950A2609F4A140A69528
:102E10008FEF811D811D08950E941F170C9490173C
:102E20000E94821738F00E94891720F0952311F034
:102E30000C9479170C947F1711240C94C4170E94DA
:102E4000A11770F3959FC1F3950F50E0551F629F36
:102E5000F001729FBB27F00DB11D639FAA27F00DF3
:102E6000B11DAA1F649F6627B00DA11D661F829F1A
:102E70002227B00DA11D621F739FB00DA11D621FFF
:102E8000839FA00D611D221F749F3327A00D611D1C
:102E9000231F849F600D211D822F762F6A2F1124FE
:102EA0009F5750409AF0F1F088234AF0EE0FFF1F31
:102EB000BB1F661F771F881F91505040A9F79E3F88
:102EC000510580F00C9479170C94C4175F3FE4F31C
:102ED000983ED4F3869577956795B795F795E795DE
:102EE0009F5FC1F7FE2B880F911D9695879597F9E7
:102EF000089597F99F6780E870E060E008959FEF7C
:102F000080EC089500240A94161617061806090680
:102F1000089500240A94121613061406050608954F
:102F2000092E0394000C11F4882352F0BB0F40F4D7
:102F3000BF2B11F460FF04C06F5F7F4F8F4F9F4F17
:102F4000089557FD9058440F551F59F05F3F71F099
:102F50004795880F97FB991F61F09F3F79F0879500
:102F60000895121613061406551FF2CF4695F1DF89
:102F700008C0161617061806991FF1CF8695710519
:102F8000610508940895E894BB2766277727CB014D
:102F900097F90895F999FECF92BD81BDF89A9927C6
:102FA00080B50895262FF999FECF1FBA92BD81BD35
:102FB00020BD0FB6F894FA9AF99A0FBE01960895BB
:102FC000DB018F939F930E943118BF91AF91A29F15
:102FD000800D911DA39F900DB29F900D1124089517
:102FE000A1E21A2EAA1BBB1BFD010DC0AA1FBB1F0D
:102FF000EE1FFF1FA217B307E407F50720F0A21B7F
:10300000B30BE40BF50B661F771F881F991F1A94EB
:1030100069F760957095809590959B01AC01BD0115
:10302000CF010895052E97FB1EF400940E942918E5
:1030300057FD07D00E94F01707FC03D04EF40C9404
:10304000291850954095309521953F4F4F4F5F4F30
:10305000089590958095709561957F4F8F4F9F4F04
:1030600008950E943C18A59F900DB49F900DA49FB9
:10307000800D911D11240895A29FB001B39FC0013E
:10308000A39F700D811D1124911DB29F700D811D94
:103090001124911D08955058BB27AA270E94631838
:1030A0000C9490170E94821738F00E94891720F024
:1030B00039F49F3F19F426F40C947F170EF4E09531
:1030C000E7FB0C947917E92F0E94A11758F3BA1760
:1030D000620773078407950720F079F4A6F50C942E
:1030E000C3170EF4E0950B2EBA2FA02D0B01B901DA
:1030F00090010C01CA01A0011124FF27591B99F06E
:10310000593F50F4503E68F11A16F040A22F232F79
:10311000342F4427585FF3CF469537952795A795C9
:10312000F0405395C9F77EF41F16BA0B620B730B70
:10313000840BBAF09150A1F0FF0FBB1F661F771FE1
:10314000881FC2F70EC0BA0F621F731F841F48F496
:10315000879577956795B795F7959E3F08F0B0CF1F
:103160009395880F08F09927EE0F97958795089506
:103170000E94CC180C9490170E94891758F00E9456
:10318000821740F029F45F3F29F00C947917511110
:103190000C94C4170C947F170E94A11768F399230D
:1031A000B1F3552391F3951B550BBB27AA27621743
:1031B0007307840738F09F5F5F4F220F331F441F50
:1031C000AA1FA9F335D00E2E3AF0E0E832D0915084
:1031D0005040E695001CCAF72BD0FE2F29D0660F71
:1031E000771F881FBB1F261737074807AB07B0E8B4
:1031F00009F0BB0B802DBF01FF2793585F4F3AF0BA
:103200009E3F510578F00C9479170C94C4175F3FDA
:10321000E4F3983ED4F3869577956795B795F7953F
:103220009F5FC9F7880F911D9695879597F9089527
:10323000E1E0660F771F881FBB1F621773078407C3
:10324000BA0720F0621B730B840BBA0BEE1F88F7D2
:10325000E09508950E9431196894B1110C94C41737
:1032600008950E94A91788F09F5798F0B92F9927C1
:10327000B751B0F0E1F0660F771F881F991F1AF061
:10328000BA95C9F714C0B13091F00E94C317B1E0EC
:1032900008950C94C317672F782F8827B85F39F0EB
:1032A000B93FCCF3869577956795B395D9F73EF4FA
:1032B00090958095709561957F4F8F4F9F4F0895A2
:1032C000FA01EE0FFF1F309621053105A1F16115BE
:1032D000710561F48038BFE39B0749F16894903829
:1032E000810561F08038BFEF9B0741F099234AF5D3
:1032F000FF3FE1053105210519F1E8940894E795B0
:10330000D901AA2329F4AB2FBE2FF85FD0F310C048
:10331000FF5F70F4A695E0F7F73950F019F0FF3A27
:1033200038F49F779F930DD00F9007FC9058089525
:1033300046F00C947F1760E070E080E89FE308950A
:103340004FE79F775F934F933F932F930E945B1AB2
:103350002F913F914F915F910E940C170C94B819D7
:1033600029F416F00C9479170C94C3170C947F175A
:103370000E94A917A8F39638A0F707F80F92E894CF
:103380002BE33AEA48EB5FE70E9422170F920F9275
:103390000F924DB75EB70F920E94A31AE8E6F0E0D5
:1033A0000E94EA194F915F91EF91FF91E595EE1F11
:1033B000FF1F49F0FE57E0684427EE0F441FFA95BF
:1033C000E1F74195550B0E941D1A0F9007FE0C94D2
:1033D000111A0895DF93CF931F930F93FF92EF92EB
:1033E000DF927B018C01689406C0DA2EEF010E9407
:1033F0001F17FE01E894A5912591359145915591AE
:10340000A6F3EF010E946318FE019701A801DA9468
:1034100069F7DF90EF90FF900F911F91CF91DF91AF
:1034200008959B01AC0160E070E080E89FE30C949C
:10343000B8180C9479170C94D71A0E94A917D8F3CE
:103440009923C9F3940F511DA3F39150504094F068
:1034500059F0882332F0660F771F881F9150504033
:10346000C1F79E3F51052CF7880F911D96958795C2
:1034700097F908955F3FACF0983E9CF0BB27869586
:1034800077956795B79508F4B1609395C1F7BB0F31
:1034900058F711F460FFE8CF6F5F7F4F8F4F9F4F5A
:1034A000E3CF0C94C41716F00C94D71A0C947F1722
:1034B00068940C9479170E94A917A8F39923C1F373
:1034C000AEF3DF93CF931F930F93FF92C92FDD27A6
:1034D00088232AF02197660F771F881FDAF720E0EC
:1034E00030E040E85FEB9FE3883920F0803E38F021
:1034F00021968F770E944C18E0E9F0E004C00E940A
:103500004C18EDEBF0E00E94EA198B01BE01EC01D2
:10351000FB2E6F5771097595771F880B990B0E94C9
:10352000AD1628E132E741E35FE30E941F17AF2D9C
:103530009801AE01FF900F911F91CF91DF910E94F2
:1035400063180C949017FA01DC01AA0FBB1F9B01B2
:10355000AC01BF5728F4222733274427507820C0D6
:10356000B75190F4AB2F0024469537952795011C51
:10357000A395D2F3002071F0220F331F441FB3959F
:10358000DAF30ED00C944B1861307105A0E88A076D
:10359000B94630F49B01AC016627772788279078DD
:1035A000309621F0208331834283538308959F3FD7
:1035B00031F0915020F4879577956795B795880FEE
:1035C000911D9695879597F9089597FB072E16F408
:1035D000009407D077FD09D00E943F1B07FC05D05F
:1035E0003EF4909581959F4F0895709561957F4F1A
:1035F00008950E943C18332312F48A1B9B0B0C94F1
:10360000031B0E943C18B7FF0895821B930B08957B
:103610000F93083090F0982F872F762F652F542F17
:10362000432F322F22270850F4CF220F331F441F7D
:10363000551F661F771F881F991F0A95B2F70F91B4
:10364000089597FB10F8169400080F93083098F02F
:103650000850232F342F452F562F672F782F892F6F
:10366000902DF4CF05949795879577956795579505
:103670004795379527950A95AAF70F910895AA1BA4
:10368000BB1B51E107C0AA1FBB1FA617B70710F04D
:10369000A61BB70B881F991F5A95A9F7809590957F
:1036A000BC01CD010895EE0FFF1F0590F491E02DB0
:1036B000099481E090E0F8940C946E1BFB01DC010E
:1036C0008D91019080190110D9F3990B0895FB0198
:1036D000DC0101900D920020E1F70895F894FFCFEE
:1036E000010000000035011A07CD007C01FE00DC5E
:1036F00000F0000000000084025402B40228024CD2
:103700000238022902564D4450565F317C315F56D3
:103710004D4450560D0A0053657269616C206D6FFF
:103720006E69746F722072656164792E0041455430
:1037300020312E30005374617274696E67205054CA
:10374000323431332E2E2E2E00416461667275693B
:1037500074204D505231323120436170616369747D
:1037600069766520546F7563682073656E736F7238
:103770002074657374004D505231323120666F757C
:103780006E642100564D4450455F003A323A007C49
:10379000005F564D4450450020506F7765722020E1
:1037A0002020202020202020202000537065616BE5
:1037B00065722052656C6179204F46462E00506F2D
:1037C0007765722052656C6179204F46462E005015
:1037D0006F7765722052656C6179204F4E2E0053D1
:1037E0007065616B65722052656C6179204F4E2E59
:1037F00000204D6F646520202020202020202020E4
:1038000020202000204D75746520202020202020BD
:10381000202020200020506C61792F506175736545
:103820002020202020202020200020507265766952
:103830006F7573202020202020202000204E6578E6
:103840007420202020200020564F4C2D20202020A6
:10385000202020202020200020564F4C2B202020EC
:103860002020202020202020002042617373202D62
:103870002020202020202020202020202020002068
:1038800042617373202B2020202020202020202024
:103890002020200020547265626C65202D2020209D
:1038A000202020202020202020202000205472656D
:1038B000626C65202B20202020202020202020202A
:1038C0002020200020756E6B6E6F776E20627574FD
:1038D000746F6E202020004D5052313231206E6FB7
:1038E0007420666F756E642C20636865636B207747
:0838F0006972696E673F000078
:107800000C94343C0C94513C0C94513C0C94513CE1
:107810000C94513C0C94513C0C94513C0C94513CB4
:107820000C94513C0C94513C0C94513C0C94513CA4
:107830000C94513C0C94513C0C94513C0C94513C94
:107840000C94513C0C94513C0C94513C0C94513C84
:107850000C94513C0C94513C0C94513C0C94513C74
:107860000C94513C0C94513C11241FBECFEFD8E036
:10787000DEBFCDBF11E0A0E0B1E0ECE9FFE702C060
:1078800005900D92A230B107D9F712E0A2E0B1E065
:1078900001C01D92AD30B107E1F70E942D3D0C945F
:1078A000CC3F0C94003C982F959595959595959582
:1078B000905D8F708A307CF0282F295A8091C0000B
:1078C00085FFFCCF9093C6008091C00085FFFCCF60
:1078D0002093C6000895282F205DF0CF982F809127
:1078E000C00085FFFCCF9093C6000895EF92FF92F1
:1078F0000F931F93EE24FF2487018091C00087FD22
:1079000017C00894E11CF11C011D111D81E4E8164B
:1079100082E4F8068FE0080780E0180770F3E09132
:107920000401F091050109958091C00087FFE9CF1E
:107930008091C6001F910F91FF90EF9008950E94D3
:10794000763C982F8091C00085FFFCCF9093C600B5
:1079500091362CF490330CF09053892F089597555D
:10796000892F08951F930E949F3C182F0E949F3CCF
:107970001295107F810F1F9108951F93182F882350
:1079800021F00E94763C1150E1F71F9108951F935A
:10799000182F0E94763C803249F0809103018F5F5E
:1079A000809303018530C1F01F9108958091C0003C
:1079B00085FFFCCF84E18093C6008091C00085FFE5
:1079C000FCCF1093C6008091C00085FFFCCF80E102
:1079D0008093C6001F910895E0910401F091050184
:1079E00009951F9108950E94763C803241F0809164
:1079F00003018F5F80930301853081F008958091AA
:107A0000C00085FFFCCF84E18093C6008091C00058
:107A100085FFFCCF80E18093C6000895E0910401CA
:107A2000F09105010995089540E951E08823A1F0FE
:107A30002D9A28EE33E0FA013197F1F721503040CA
:107A4000D1F72D9828EE33E0FA013197F1F7215064
:107A50003040D1F7815061F708953F924F925F9285
:107A60006F927F928F929F92AF92BF92CF92DF924E
:107A7000EF92FF920F931F93CF93DF93000080E16B
:107A80008093C4001092C50088E18093C10086E015
:107A90008093C2005098589A259A81E00E94143D24
:107AA00024E1F22E9EE1E92E85E9D82E0FE0C02ECA
:107AB00010E1B12EAA24A394B1E49B2EA6E58A2E50
:107AC000F2E57F2EE0E26E2E79E4572E63E5462E36
:107AD00050E5352E0E94763C8033B1F18133B9F107
:107AE000803409F46FC0813409F476C0823409F41B
:107AF00085C0853409F488C0803531F1823521F1A3
:107B0000813511F1853509F485C0863509F48DC0BC
:107B1000843609F496C0843709F403C1853709F423
:107B200072C1863709F466C0809103018F5F80932C
:107B30000301853079F6E0910401F0910501099582
:107B40000E94763C803351F60E94F33CC3CF0E94E2
:107B5000763C803249F78091C00085FFFCCFF092DF
:107B6000C6008091C00085FFFCCF9092C600809136
:107B7000C00085FFFCCF8092C6008091C00085FFC9
:107B8000FCCF7092C6008091C00085FFFCCF609250
:107B9000C6008091C00085FFFCCF5092C600809146
:107BA000C00085FFFCCF4092C6008091C00085FFD9
:107BB000FCCF3092C6008091C00085FFFCCFB09210
:107BC000C60088CF0E94763C863808F4BDCF0E945C
:107BD000763C0E94F33C7ECF0E94763C803809F4CC
:107BE0009CC0813809F40BC1823809F43CC1883942
:107BF00009F48FC080E00E94C73C6CCF84E10E94F2
:107C0000BD3C0E94F33C66CF85E00E94BD3C0E94D3
:107C1000F33C60CF0E94763C809306010E94763C44
:107C2000809307010E94F33C55CF0E94763C80333D
:107C300009F41DC183E00E94BD3C80E00E94C73C66
:107C400049CF0E94763C809309020E94763C809343
:107C5000080280910C028E7F80930C020E94763C79
:107C6000853409F415C18091080290910902892B8D
:107C700089F000E010E00E94763CF801E85FFE4FDA
:107C800080830F5F1F4F80910802909109020817AF
:107C9000190788F30E94763C803209F045CF809125
:107CA0000C0280FF01C16091060170910701660F0F
:107CB000771F7093070160930601A0910802B091AD
:107CC00009021097C9F0E8E0F1E09B01AD014E0F09
:107CD0005F1FF999FECF32BD21BD819180BDFA9A17
:107CE000F99A2F5F3F4FE417F50799F76A0F7B1F4B
:107CF00070930701609306018091C00085FFFCCF5F
:107D0000F092C6008091C00085FFFCCFB092C60003
:107D1000E1CE83E00E94C73CDDCE82E00E94C73CFA
:107D2000D9CE0E94763C809309020E94763C8093D3
:107D300008028091060190910701880F991F909386
:107D40000701809306010E94763C853409F4A6C0A1
:107D500080910C028E7F80930C020E94763C8032D0
:107D600009F0B8CE8091C00085FFFCCFF092C6002C
:107D7000609108027091090261157105B9F140E046
:107D800050E080910C02A82FA170B82FB27011C0E2
:107D9000BB2309F45CC0E0910601F0910701319624
:107DA000F0930701E09306014F5F5F4F46175707B7
:107DB000E8F4AA2369F3F999FECF209106013091E6
:107DC000070132BD21BDF89A90B58091C00085FFB2
:107DD000FCCF9093C6002F5F3F4F30930701209355
:107DE00006014F5F5F4F4617570718F38091C00099
:107DF00085FDE5CE8091C00085FFF8CFE0CE81E023
:107E00000E94C73C67CE0E94763C803209F08CCE3F
:107E10008091C00085FFFCCFF092C6008091C00029
:107E200085FFFCCFE092C6008091C00085FFFCCFAB
:107E3000D092C6008091C00085FFFCCFC092C600E2
:107E40008091C00085FFFCCFB092C60043CEE09188
:107E50000601F091070194918091C00085FFFCCF4D
:107E60009093C6009CCF80E10E94C73C33CE0E9415
:107E7000763C0E94763C182F0E94763C112309F430
:107E800083C0113009F484C08FE00E94C73C22CE29
:107E900080910C02816080930C02E5CE80910C02EF
:107EA000816080930C0259CF809107018823880F4D
:107EB000880B8A2180930B02809106019091070123
:107EC000880F991F90930701809306018091080203
:107ED00080FF09C080910802909109020196909359
:107EE000090280930802F894F999FECF1127E091D6
:107EF0000601F0910701C8E0D1E08091080290915D
:107F00000902103091F40091570001700130D9F34B
:107F100003E000935700E89500915700017001308D
:107F2000D9F301E100935700E89509901990009169
:107F3000570001700130D9F301E000935700E89534
:107F40001395103498F011270091570001700130FB
:107F5000D9F305E000935700E895009157000170B0
:107F60000130D9F301E100935700E895329602976A
:107F700009F0C7CF103011F00296E5CF112480919F
:107F8000C00085FFB9CEBCCE8EE10E94C73CA2CD19
:0C7F900085E90E94C73C9ECDF894FFCF0D
:027F9C00800063
:040000030000780081
:00000001FF