:100000000C94A3000C94CB000C94CB000C94CB006C
:100010000C94CB000C94CB000C94CB000C940704F4
:100020000C94CB000C94CB000C94CB000C94CB0024
:100030000C94CB000C94CB000C94CB000C94CB0014
:100040000C94BD030C94CB000C94D9020C94B30215
:100050000C94CB000C94CB000C94CB000C94CB00F4
:100060000C942E050C94CB0007634236B79BD8A79F
:100070001A39685618AEBAAB558C1D3CB7CC5763CD
:10008000BD6DEDFD753EF6177231BF000000803F7B
:1000900008000000BE922449123EABAAAA2ABECD97
:1000A000CCCC4C3E00000080BEABAAAAAA3E000009
:1000B0000000BF000000803F000000000008417801
:1000C000D3BB4387D1133D190E3CC3BD4282AD2B38
:1000D0003E68EC8276BED98FE1A93E4C80EFFFBE30
:1000E00001C4FF7F3F00000000000000000023006B
:1000F0002600290000000000240027002A0000003C
:100100000000250028002B00040404040404040457
:1001100002020202020203030303030301020408B2
:100120001020408001020408102001020408102061
:1001300000000008000201000003040700000000A6
:1001400000000000121411241FBECFEFD8E0DEBF64
:10015000CDBF12E0A0E0B1E0E8E5F2E302C0059017
:100160000D92A83AB107D9F725E0A8EAB2E001C09C
:100170001D92A434B207E1F710E0C3EAD0E004C056
:100180002197FE010E940F19C23AD107C9F70E94B8
:1001900072090C942A190C940000FC01538D448DB3
:1001A000252F30E0842F90E0821B930B541710F022
:1001B000CF96089501970895FC01918D828D98172F
:1001C00061F0828DDF01A80FB11D5D968C91928D3B
:1001D0009F5F9F73928F90E008958FEF9FEF089538
:1001E000FC01918D828D981731F0828DE80FF11D01
:1001F000858D90E008958FEF9FEF0895FC01918D1C
:10020000228D892F90E0805C9F4F821B91098F7314
:10021000992708958FE793E00E94FE0021E0892B43
:1002200009F420E0822F0895FC01848DDF01A80FDE
:10023000B11DA35ABF4F2C91848D90E001968F730E
:100240009927848FA689B7892C93A089B1898C912D
:1002500080648C93938D848D981306C00288F389F3
:10026000E02D80818F7D80830895EF92FF920F9320
:100270001F93CF93DF93EC0181E0888F9B8D8C8D52
:10028000981305C0E889F989808185FD24C0F62E80
:100290000B8D10E00F5F1F4F0F731127E02E8C8D19
:1002A000E8120CC00FB607FCFACFE889F989808103
:1002B00085FFF5CFCE010E941401F1CF8B8DFE0199
:1002C000E80FF11DE35AFF4FF0820B8FEA89FB899B
:1002D0008081806207C0EE89FF896083E889F9899F
:1002E00080818064808381E090E0DF91CF911F91D5
:1002F0000F91FF90EF900895CF93DF93EC01888DDD
:100300008823C9F0EA89FB89808185FD05C0A88919
:10031000B9898C9186FD0FC00FB607FCF5CF80819F
:1003200085FFF2CFA889B9898C9185FFEDCFCE01E9
:100330000E941401E7CFDF91CF91089580E090E013
:10034000892B29F00E940A0181110C940000089564
:10035000833081F028F4813099F08230A1F0089543
:100360008730A9F08830B9F08430D1F480918000D2
:100370008F7D03C0809180008F77809380000895E7
:1003800084B58F7702C084B58F7D84BD0895809138
:10039000B0008F7703C08091B0008F7D8093B00054
:1003A00008953FB7F89480911E0390911F03A09188
:1003B0002003B091210326B5A89B05C02F3F19F05B
:1003C0000196A11DB11D3FBFBA2FA92F982F8827D5
:1003D000820F911DA11DB11DBC01CD0143E0660F2F
:1003E000771F881F991F4A95D1F7089585ED80934F
:1003F000BC008091BC0084FDFCCF10925A0308958C
:100400004091F402262F30E0240F311D21323105B6
:10041000DCF420915A032430C9F4FC0180E090E020
:10042000861758F43091F4022191DC01AE52BD4F91
:10043000A30FB11D2C930196F3CF8091F402680FA6
:100440006093F40280E0089581E0089582E00895C9
:10045000089581E090E03091330320913203321708
:1004600010F480E090E09195819591090895809134
:10047000330390913203891730F48F5F80933303F5
:1004800080E090E008958FEF9FEF08958091320310
:1004900090E020913303821B91090895CF92DF925F
:1004A000EF92FF920F931F93CF93DF937C01262F40
:1004B000972F8A0180915B03882391F0C62FD72F55
:1004C0006E01C40ED51ECC15DD0571F06991D70102
:1004D000ED91FC910190F081E02DC7010995F3CFDA
:1004E000642F822F0E940002C801DF91CF911F91DB
:1004F0000F91FF90EF90DF90CF900895CF93DF930F
:100500001F92CDB7DEB7698320915B032223D1F020
:1005100020917E03203240F021E030E0FC01338363
:10052000228380E090E015C080915C03E82FF0E02A
:10053000E35AFC4F998190838F5F80935C03809393
:100540007E0305C061E0CE0101960E94000281E0B9
:1005500090E00F90DF91CF910895089580E090E0B2
:1005600008950E9415191F920F920FB60F92112431
:100570002F933F934F935F936F937F938F939F93AB
:10058000AF93BF93EF93FF938FE793E00E94140123
:10059000FF91EF91BF91AF919F918F917F916F915B
:1005A0005F914F913F912F910F900FBE0F901F9031
:1005B00018951F920F920FB60F9211242F938F93BD
:1005C0009F93EF93FF93E0918F03F09190038081CD
:1005D000E0919503F091960382FD12C09081809185
:1005E00098038F5F8F7320919903821751F0E091E8
:1005F0009803F0E0E158FC4F958F8093980301C079
:100600008081FF91EF919F918F912F910F900FBE5D
:100610000F901F9018951F93CF93DF93282F30E0F2
:10062000F901E05DFE4F8491F901E45EFE4FD49143
:10063000F901E85FFE4FC491CC23C9F0162F811158
:100640000E94A801EC2FF0E0EE0FFF1FE250FF4FD9
:10065000A591B4918FB7F894111105C09C91ED2F1D
:10066000E095E92302C0EC91ED2BEC938FBFDF9175
:10067000CF911F910895CF93DF9390E0FC01E45E4A
:10068000FE4F2491FC01E85FFE4F8491882361F1C5
:1006900090E0880F991FFC01EC50FF4FC591D49159
:1006A000FC01E250FF4FA591B491611109C09FB7C1
:1006B000F8948881209582238883EC912E230BC0A7
:1006C000623061F49FB7F8943881822F809583233C
:1006D0008883EC912E2B2C939FBF06C08FB7F89484
:1006E000E8812E2B28838FBFDF91CF9108958F92C1
:1006F0009F92AF92BF92CF92DF92EF92FF926B01E7
:100700007C010E94D1014B015C01C114D104E104C0
:10071000F104F1F00E94D101DC01CB0188199909A3
:10072000AA09BB09883E9340A105B10570F321E0F9
:10073000C21AD108E108F10888EE880E83E0981EFD
:10074000A11CB11CC114D104E104F10419F7DDCFDF
:10075000FF90EF90DF90CF90BF90AF909F908F90E1
:1007600008952FB7F89460911A0370911B0380913C
:100770001C0390911D032FBF08951F920F920FB677
:100780000F9211242F933F938F939F93AF93BF9317
:1007900080911A0390911B03A0911C03B0911D033B
:1007A0003091190326E0230F2D3720F40296A11D66
:1007B000B11D05C029E8230F0396A11DB11D20938B
:1007C000190380931A0390931B03A0931C03B09307
:1007D0001D0380911E0390911F03A0912003B091EF
:1007E00021030196A11DB11D80931E0390931F0349
:1007F000A0932003B0932103BF91AF919F918F915C
:100800003F912F910F900FBE0F901F9018951F9240
:100810000F920FB60F9211242F933F934F935F9334
:100820006F937F938F939F93AF93BF93CF93DF93F8
:10083000EF93FF932091710430E0F901E05DFE4FEA
:100840008491F901E45EFE4FD491F901E85FFE4F17
:10085000C491CC23A1F081110E94A801EC2FF0E0FB
:10086000EE0FFF1FE651FF4FA591B491EC91ED23E0
:1008700031E020E009F430E0832F922F02C080E0C5
:1008800090E020917504309176042F5F3F4F3093B4
:1008900076042093750420917404253618F026E020
:1008A00020937004209170042430D9F128F4223070
:1008B00069F02330D9F060C0253009F453C02630E8
:1008C00009F05AC021E02093410553C0009709F078
:1008D00053C020917504309176042436310508F414
:1008E00043C010924105109274041DC081309105DF
:1008F00009F042C0E091740421E02E0F20937404AB
:10090000F0E02091750430917604EE0FFF1FE0595E
:10091000FB4F30872783109276041092750424E0F1
:1009200029C00097B9F4E091740421E02E0F2093C0
:100930007404F0E02091750430917604EE0FFF1FEF
:10094000E059FB4F3087278310927604109275048C
:1009500023E010C0209175043091760425363105CE
:1009600058F007C0009741F4109276041092750475
:1009700003C025E020937004209173042223B9F072
:10098000892B51F480917204882321F080917204A4
:1009900061E009C02D9A0BC080917204882331F068
:1009A0008091720460E00E940B0301C02D98FF91BA
:1009B000EF91DF91CF91BF91AF919F918F917F91F7
:1009C0006F915F914F913F912F910F900FBE0F90BC
:1009D0001F901895CF92DF92EF92FF92CF93DF9303
:1009E000EC01072E000C880B990B0E9469146B0117
:1009F0007C0120E030E040E45FE30E94C81420E086
:100A000030E048E452E40E9474160E94E616C617CD
:100A1000D707D4F020E030E040EA5FE3C701B60139
:100A20000E94C81420E030E048E452E40E947416AA
:100A300020E030E040E85FE30E9408160E94E616DE
:100A400021E06C177D070CF420E0822F90E0DF910D
:100A5000CF91FF90EF90DF90CF9008951F920F926B
:100A60000FB60F9211242F933F934F935F936F9381
:100A70007F938F939F93AF93BF93EF93FF93809157
:100A8000B900887F803609F49CC068F5883209F483
:100A90005BC090F4803109F454C038F4882309F421
:100AA000F6C0883009F44DC0F6C0883109F44CC056
:100AB000803209F45DC0EFC0803409F468C048F4A6
:100AC000803309F455C0883309F0E5C0809358039A
:100AD000D8C0803509F44FC0883509F45DC088342A
:100AE00009F0D9C0D6C0883909F4C7C0A8F488373E
:100AF00009F467C038F4883609F463C0803709F414
:100B000060C0C9C0883809F4B8C0803909F45FC032
:100B1000803809F0C0C05BC0803B09F486C038F45F
:100B2000803A09F466C0883A09F47FC0B4C0803CBA
:100B300009F4A7C0883C09F4A4C0883B09F48AC022
:100B4000AAC08091350310C090915703809156033D
:100B5000981770F5E091570381E08E0F809357034B
:100B6000F0E0EA5CFC4F80818093BB0085EC86C09E
:100B7000809358038EC0E091570381E08E0F8093DD
:100B800057038091BB00F0E0EA5CFC4F80839091BA
:100B90005703809156036EC0E091570381E08E0F9A
:100BA000809357038091BB00F0E0EA5CFC4F8083A8
:100BB0008091590381116DC081E08093340384EAF0
:100BC00061C083E080935A0310921803CFCF8091C5
:100BD0001803803208F051C0E091180381E08E0FB5
:100BE000809318038091BB00F0E0E850FD4F8083B4
:100BF000BDCF85EC8093BC0010925A0380911803FE
:100C0000803230F4E0911803F0E0E850FD4F10829C
:100C10006091180370E0E091F602F091F70288EF1E
:100C200092E009951092180336C084E080935A032D
:100C30001092F5021092F402E091F202F091F302A8
:100C400009958091F402811105C081E08093F4023E
:100C50001092D202E091F50281E08E0F8093F502AE
:100C6000F0E0EE52FD4F80818093BB009091F50241
:100C70008091F402981708F479CF85E88093BC003E
:100C80000AC085EC8093BC0010925A0304C01092F5
:100C900058030E94F601FF91EF91BF91AF919F9190
:100CA0008F917F916F915F914F913F912F910F9015
:100CB0000FBE0F901F90189510925A0381E08093F9
:100CC00059031092340361E082E10E940B0361E05A
:100CD00083E10E940B03E9EBF0E080818E7F80834B
:100CE00080818D7F808380E28093B80085E480934B
:100CF000BC000895CF93DF93EC010E94B103609391
:100D0000A8027093A9028093AA029093AB0260E0BC
:100D100085E00E940B03C930D105ACF4BE01DD0FA4
:100D2000880B990B0E9469149B01AC0160E070E094
:100D300080E090E40E941C170E94ED16862F0E940E
:100D4000D50780E017C08FEF0E94D507BE0168501D
:100D50007109072E000C880B990B0E9469149B01E6
:100D6000AC0160E070E080E090E40E941C170E94FB
:100D7000ED16862F0E94D50761E085E00E940B03E7
:100D800081E08093D1020E94B1036093A802709326
:100D9000A9028093AA029093AB0261E082E0DF9106
:100DA000CF910C940B03CF92DF92EF92FF920F93AF
:100DB0001F93CF93DF938C016B01770FEE08FF0831
:100DC000C701B6010E947703C0E0D0E0C017D10789
:100DD00074F560E085E00E940B038FEF0E94D50759
:100DE0008FEF0E94D50761E085E00E940B0360E071
:100DF00082E00E940B03C701B6010E94770360E006
:100E000085E00E940B0380E00E94D50780E00E94ED
:100E1000D50761E085E00E940B0361E082E00E945B
:100E20000B03C701B6010E9477032196CFCFDF9154
:100E3000CF911F910F91FF90EF90DF90CF90089589
:100E4000CF92DF92EF92FF920F931F93CF93DF9396
:100E50006C017A018B01C0E0D0E0CE15DF0589F08E
:100E6000D8016D918D01D601ED91FC910190F08139
:100E7000E02DC6010995892B11F47E0102C021964F
:100E8000ECCFC701DF91CF911F910F91FF90EF90B1
:100E9000DF90CF900895EFE7F3E0A089B18982E079
:100EA0008C93A485B5851C92A685B78587E68C931F
:100EB000108EA489B58986E08C93A289B3898C9120
:100EC00080618C93A289B3898C9188608C93A2896C
:100ED000B3898C9180688C930288F389E02D80819E
:100EE0008F7D80830895682F84E694E00C947E02C1
:100EF00020917E0390917D03213208F04AC08091B9
:100F00005A038111FCCF32E030935A0331E0309321
:100F100059033FEF30935803109257032093560321
:100F2000ADE5B3E046E353E0FA013E2F341B321740
:100F300018F43D913193F9CF109235032091350388
:100F4000990F922B9093350390913403913061F473
:100F500010923403909135039093BB009091BC00A4
:100F600093FDF8CF95EC01C095EE9093BC00909165
:100F70005A039230E1F3909158039F3F79F08091AA
:100F80005803803241F080915803803331F084E07F
:100F900005C081E003C082E001C083E010925C03E1
:100FA00010927E0310925B0308950F931F93CF93CB
:100FB000DF93082F61E087E00E943B0361E086E059
:100FC0000E943B0360E086E00E940B0360E087E044
:100FD0000E940B03C7E0D0E010E060E087E00E94D1
:100FE0000B03B8010C2E02C0759567950A94E2F7C1
:100FF0006170772786E00E940B0361E087E00E9422
:101000000B0360E086E00E940B03219730F760E05D
:1010100087E0DF91CF911F910F910C940B038F927A
:101020009F92AF92BF92CF92DF92EF92FF920F9377
:101030001F93CF93DF93FC01C081D18120912E03B8
:1010400030912F03C217D3070CF04BC09E01220F23
:10105000331FE0912C03F0912D03E20FF31F8080EA
:101060009180C170DD27F1E0CF27209719F404E6C5
:1010700010E002C00CE91FEF7A015B016C01040F64
:10108000151FB801C4010E94EA04892B99F40E0DC2
:101090001F1DB801C4010E94EA04892B71F4B80134
:1010A0006E0D7F1DC4010E94EA04892BE9F023E044
:1010B00030E005C021E030E002C022E030E0F50180
:1010C000808191810196821793073CF0F50111828E
:1010D0001082F60180819181019691838083CE01F7
:1010E00005C081E090E002C08FEF9FEFDF91CF91CC
:1010F0001F910F91FF90EF90DF90CF90BF90AF9036
:101100009F908F9008956115710579F0FB01019012
:101110000020E9F73197AF01461B570BDC01ED9139
:10112000FC910280F381E02D099480E090E0089525
:10113000CF93DF93BC018FE793E00E948308EC011B
:1011400064E371E08FE793E00E9483088C0F9D1F9A
:10115000DF91CF9108954F925F926F927F92EF92BD
:10116000FF920F931F93CF93DF93CDB7DEB7A19775
:101170000FB6F894DEBF0FBECDBF7C01FA01CB01E4
:1011800019A2223008F42AE08E010F5D1F4F422E73
:10119000512C612C712CBF01A30192010E94AC154E
:1011A000F901CA01015011096A3014F4605D01C0EF
:1011B000695CD8016C93232B242B252B61F7B80194
:1011C000C7010E948308A1960FB6F894DEBF0FBE38
:1011D000CDBFDF91CF911F910F91FF90EF907F9046
:1011E0006F905F904F900895CF93DF9300D0CDB76D
:1011F000DEB7109233031092320310925C03109208
:101200007E036A8389830E945C0691E090935B036E
:1012100094E490937D036A818981862B90E00E94FB
:1012200073070E947807482F50E060E070E02AE0E2
:101230008FE793E00E94AB0864E371E08FE793E0EF
:101240000E9483086AE070E080E090E00F900F90C9
:10125000DF91CF910C947703893F2FEF920744F0F1
:101260009C01089714F027E030E037FF05C002C06A
:1012700029EF3FEF67E00BC0A9EFBFEF0E94B51861
:1012800027E030E040E050E00E94CE156FE0620FB2
:1012900080E70C94F408893F2FEF920744F09C01FB
:1012A000089714F027E030E037FF05C002C029EFAF
:1012B0003FEF67E00BC0A9EFBFEF0E94B51827E032
:1012C00030E040E050E00E94CE156FE0620F80E613
:1012D0000C94F408803408F08FE36FE3681B80E01F
:1012E0000C94F408CF93DF93CDB7DEB72C970FB6ED
:1012F000F894DEBF0FBECDBF789484B5826084BD04
:1013000084B5816084BD85B5826085BD85B5816009
:1013100085BD80916E00816080936E001092810087
:101320008091810082608093810080918100816042
:101330008093810080918000816080938000809103
:10134000B10084608093B1008091B000816080938F
:10135000B00080917A00846080937A0080917A0056
:10136000826080937A0080917A008E7F80937A00E9
:1013700080917A00806880937A001092C100109268
:10138000600410926104109262041092630410923F
:101390001E0410921F0410922004109221040E9437
:1013A000B1036B017C014B015C0118EB810E1BE06A
:1013B000911EA11CB11C0E94B1036C157D058E0508
:1013C0009F0528F086169706A806B906A0F78FE7AE
:1013D00093E090935F0480935E040E944B070E9409
:1013E000B10360931E0470931F04809320049093B4
:1013F000210465E271E080915E0490915F040E9497
:1014000083080E94B1036B017C014B015C012AE05F
:10141000820E911CA11CB11C0E94B1036C157D05AC
:101420008E059F0528F086169706A806B906A0F730
:1014300011E0109332041092CD021092CE0210925D
:10144000CF021092D0021092A8021092A90210921C
:10145000AA021092AB0264EF71E080E090E00E947B
:1014600077030E944B0787E391E00E94980810924F
:10147000C1021093C30282E08093C20284E0809391
:10148000C40288E08093C50280E18093C60280E2B6
:101490008093C70280E48093C80280E88093C902E9
:1014A0008EEAE82E82E0F82E00E410E0C8010E94E7
:1014B0008615D7018D937D010F5F1F4F02351105F2
:1014C000A9F76DE471E08EEA92E00E941A19892B67
:1014D000E9F06DE471E08EEA92E00E942319109227
:1014E000B6021092B70287E090E09093B902809321
:1014F000B8021092BB021092BA021092BD02109272
:10150000BC0260E082E590E00E948E1510923303E9
:101510001092320310925C0310927E030E945C06CC
:1015200081E080935B0384E480937D0310925C03ED
:1015300010927E0380E490E00E94730780E090E0C8
:101540000E94730780EE90E00E9473070E94780764
:1015500061E085E00E943B0361E086E00E943B037E
:1015600061E087E00E943B0361E08BE00E943B0367
:1015700061E08CE00E943B0361E082E00E943B035B
:1015800061E08CE00E940B0361E08BE00E940B03A2
:10159000F89482E08093B0008093B10092E390933E
:1015A000B3001092B200809370007894809370041E
:1015B000109274048091710460E00E943B0385E501
:1015C00091E00E9498086091B702643008F063E0EF
:1015D0008CE50E94F4088091B8020E946A09C090CC
:1015E000B802D090B9020D2C000CEE08FF08C7011C
:1015F000B6010E94691426E636E646E850E40E94E9
:1016000074160E94E6167093AD026093AC02F7FE6A
:1016100014C0E0917F03F09180030190F081E02DF0
:101620006DE28FE793E0099544275527BA014C19DD
:101630005D096E097F092AE003C02AE0B701A6010F
:101640008FE793E00E94AB0864E371E08FE793E0DB
:101650000E9483088091BA029091BB020E944B09BC
:101660008091BC029091BD020E942C0960E080EC48
:101670000E94F40860E080EE0E94F40810E2212E3F
:10168000312C44244A94542C3201C090A802D090AA
:10169000A902E090AA02F090AB02C114D104E104C7
:1016A000F10479F10E94B1036093CD027093CE02F0
:1016B0008093CF029093D002B8E8CB0EB3E1DB1E4B
:1016C000E11CF11C6C157D058E059F05D0F0109274
:1016D000A8021092A9021092AA021092AB0260E036
:1016E00085E00E940B0380E00E94D50780E00E9405
:1016F000D50761E085E00E940B0360E082E00E9474
:101700000B03E7E7F4E0F0932D03E0932C038091C3
:10171000740490E090932F0380932E0380914105F1
:1017200090E0909331038093300380917004853072
:1017300009F098C28091790490917A0488589109AF
:101740008D35910588F480917404843041F4809142
:101750007B0490917C048097479708F4E9C28091BC
:101760007404843408F0CBC2809174048A3108F484
:101770004FC08091770490917804843F914068F441
:1017800010922B0310922A034092260350922703B3
:10179000609228037092290359C080917904909136
:1017A0007A0485974B97A0F5EDE7F4E082E090E0AE
:1017B000C12CD12C7601AC014F5F5F4F2091740496
:1017C00030E0421753075CF4DF0112972D913C91F2
:1017D000275031092730310508F4ECC2CA010197BE
:1017E0009595879590932B0380932A030C972CF45F
:1017F00010922B0310922A030BC0C0922603D092A2
:101800002703E0922803F092290384E090E0ACC320
:10181000809174048A3108F44AC0809177049091D1
:1018200078048032934008F4ABCF80917904909192
:101830007A04C697869708F4DAC239C0C0922603A4
:10184000D0922703E0922803F09229038BE090E0E6
:101850008BC38081918185974B9708F0DAC2CC0CBD
:10186000DD1CEE1CFF1C6894C0F82E5F3F4F3496C1
:10187000C90101964091740450E0841795070CF05B
:10188000C6C2DF0112974D915C914C5051094B300B
:101890005105F8F201979595879590932B038093C6
:1018A0002A030C975CF610922B0310922A03809166
:1018B0007404823208F44DC08091790490917A04C6
:1018C0000697079708F045C0EDE7F4E082E090E066
:1018D000C12CD12C76019C012F5F3F4F40917404A5
:1018E00050E024173507E4F4DF0112974D915C9125
:1018F00011974E5151094731510508F095C2CC0C52
:10190000DD1CEE1CFF1C6894C0F8408151813496A8
:10191000435051094530510510F40296DCCFC901FE
:1019200001979595879590932B0380932A03409771
:101930002CF410922B0310922A030BC0C0922603A2
:10194000D0922703E0922803F09229038CE090E0E4
:101950000BC31C821B8281E090E09A838983809173
:1019600074048D3008F46BC049E753E0BE016D5F2D
:101970007F4FCE0101960E940F08892B09F05FC0AE
:1019800049E753E0BE016D5F7F4FCE0101960E9493
:101990000F08019709F053C049E753E0BE016D5F9E
:1019A0007F4FCE0101960E940F08892B09F047C096
:1019B000812C912C540100E010E08091740490E09F
:1019C00029813A81281739075CF549E753E0BE01C0
:1019D0006D5F7F4FCE0101960E940F087C0149E7A1
:1019E00053E0BE016D5F7F4FCE0101960E940F084C
:1019F000B1E0EB16F10449F4892B09F5880C991C28
:101A0000AA1CBB1C689480F808C0EF28C1F4019799
:101A1000B1F4880C991CAA1CBB1C0F5F1F4FCDCFC3
:101A200010932B0300932A0380922603909227039E
:101A3000A0922803B092290381E090E095C21C8215
:101A40001B8281E090E09A83898380912E0390919C
:101A50002F03181619060CF058C0E0912C03F091D2
:101A60002D0382E090E09A83898382819381899714
:101A70004E9708F04AC023E030E03A8329838481FE
:101A800095810B970A9708F040C04CEB51E0BE01DE
:101A90006D5F7F4FCE0101960E940F08892BA9F53B
:101AA0004CEB51E0BE016D5F7F4FCE0101960E946D
:101AB0000F08019751F5812C912C540100E010E0A2
:101AC00029813A8180912E0390912F03281739079D
:101AD0000CF0EDC14CEB51E0BE016D5F7F4FCE01CC
:101AE00001960E940F086C010330110509F0A9C18D
:101AF0004CEB51E0BE016D5F7F4FCE0101960E941D
:101B00000F08C816D90609F49CC1E0912C03F09186
:101B10002D0382819381C697869708F087C38481BD
:101B200095814B97459708F081C3DF0116966F01A9
:101B300036ECC30ED11C20E030E040E050E060E025
:101B400070E080E090E0ED90FC90119719E0E11AD0
:101B5000F10818E0E116F10408F068C31296ED9060
:101B6000FC90139711E1E11AF1081DE0E116F10470
:101B700008F0ACC101E00E94C41821601496AC15B5
:101B8000BD0509F7209326033093270340932803CC
:101B90005093290300E20E94DF182093240330931E
:101BA000250385E090E0909323038093220380E354
:101BB00090E090932B0380932A0384E691E00E94A7
:101BC00098088091260390912703A0912803B09153
:101BD00029038B319642A841B34ED9F589E691E0AD
:101BE0000E9498088091C002882309F4C2C161E074
:101BF0008CE00E940B038CE791E00E94980860ED56
:101C000077E080E090E00E94770361E08BE00E9443
:101C10000B038FE891E00E94980880E00E946A0917
:101C20001092C0020EEAE02E02E0F02E00E410E076
:101C3000D7016D917D01C8010E948E150F5F1F4F66
:101C400002351105A9F764EF71E081E090E00E9490
:101C5000D3068091C0028111B6C182E080937004E6
:101C6000109274048091CC02882309F43FC0209123
:101C700000018091CA029091CB02222351F001967B
:101C80009093CB028093CA02409774F010920001A7
:101C90000BC001979093CB028093CA0218161906C5
:101CA0001CF081E08093000160E085E00E940B035E
:101CB0008091CA029091CB0269E070E00E94A11865
:101CC0008C010F531D4F672B31F4F80180810E9466
:101CD000D50780E005C080E00E94D507D8018C912F
:101CE0000E94D50761E085E00E940B036EE170E081
:101CF00080E090E00E9477030E949E01C6CC809114
:101D00007B0490917C04825491098E9708F02CCD2D
:101D100080E090E040E050E0BA01FC01E358FB4F66
:101D2000208131812950310929303105B0F01CCD95
:101D300080917D0490917E040997099708F00FCD5A
:101D400010922B0310922A034092260350922703ED
:101D5000609228037092290362C2FC01E158FB4F94
:101D6000208131812751310922313105B0F4440FEE
:101D7000551F661F771F416004968038910569F6EC
:101D800030922B0320922A0340932603509327037B
:101D9000609328037093290342C220813181265029
:101DA00031092730310508F0DFCC440F551F661F7D
:101DB000771FE2CF20813181235131092F30310546
:101DC00048F4CC0CDD1CEE1CFF1C6894C0F8029695
:101DD0003496F1CC208131812A50310929303105E6
:101DE00008F016CDCC0CDD1CEE1CFF1CF0CF809152
:101DF0007B0490917C04C697869708F058CDEFE756
:101E0000F4E023E030E0C12CD12C760131CDC901C2
:101E100041CD808191810C970A9708F048CDCC0C78
:101E2000DD1CEE1CFF1C21CD4D915C914C505109E5
:101E30004B30510508F08DCDCC0CDD1CEE1CFF1C89
:101E400064CD4CEB51E0BE016D5F7F4FCE0101963A
:101E50000E940F087C010330110569F44CEB51E03E
:101E6000BE016D5F7F4FCE0101960E940F08E816FC
:101E7000F90609F04ACEC114D10459F4EA94EF28C6
:101E800009F043CE880C991CAA1CBB1C689480F8EE
:101E90000BC0CA94CD2809F038CEEF2809F035CE12
:101EA000880C991CAA1CBB1C0F5F1F4F09CE1093F6
:101EB0002B0300932A038092260390922703A0927B
:101EC0002803B092290382E090E04EC01296ED9074
:101ED000FC90139714E0E11AF10815E0E116F10403
:101EE00008F0A4C101E00E94C41848CEA8014250E5
:101EF0005109DA014D915C91495051094830510521
:101F000008F042C2BC016F5F7F4FD8014D915C91D8
:101F1000475051094730510508F03CC4220F331F88
:101F2000216002960C5F1F4F4091740450E04450B2
:101F3000510984179507D4F2019795958795909349
:101F40002B0380932A038A970CF41EC2C901330F16
:101F5000AA0BBB0B8093260390932703A09328031F
:101F6000B093290389E090E09093230380932203A8
:101F700024CE60E08BE00E940B0380EA91E00E9497
:101F8000980868EC70E082E090E00E94D30668EE6A
:101F900073E080E090E00E94770360E08CE00E94B4
:101FA0000B0380EB91E00E94980864EF71E081E000
:101FB00090E00E94D3068091B8020E946A0981E0F5
:101FC0008093C00246CE8091260390912703A09172
:101FD0002803B09129038F31E4ED9E07E3EAAE07B1
:101FE000E2E5BE0709F461C040F58B3B1DE49107B3
:101FF0001EEFA10710E2B10709F45FC070F48B3B3C
:102000003DE1930731E5A307B105E9F18F39974E1B
:10201000A944B44009F4CFC0E8C0873FF3EE9F075E
:10202000FAE9AF07FDE3BF0709F492C08B3B9C437D
:10203000AF48B84409F4B1C0D8C08B312BE4920743
:1020400028EEA20727EDB207A9F178F48B31E2E080
:102050009E07E2E8AE07E1E6BE0709F487C08B3DC4
:102060009D4EA84CB34A61F1C0C08F371DEB91075C
:102070001FECA10715EEB107A9F18F379D46A848BF
:10208000BE4E21F0B2C082EC91E011C085ED91E02E
:102090000E9498088091CC0281112CC080E00E949F
:1020A0006A0981E08093CC02D8CD86EE91E00E944F
:1020B0009808D3CD8BEF91E0FACF8DE092E0F7CF87
:1020C00088E192E00E9498088091CC02811112C0B0
:1020D0006091AC027091AD0216161706A4F561501E
:1020E000710918C089E292E00E9498088091CC02A0
:1020F000882339F08091B8020E946A091092CC02BC
:1021000022C06091AC027091AD026E307105DCF4BA
:102110006F5F7F4F7093AD026093AC02072E000C8F
:10212000880B990B0E94691426E636E646E850E4CF
:102130000E94C8140E94E616862F6093B80270931E
:10214000B9020E946A098091AC029091AD024AC026
:102150008AE392E00E9498088091BA029091BB02B3
:102160008A3F3FEF9307A4F001970CC080E592E00F
:102170000E9498088091BA029091BB028730910525
:102180003CF401969093BB028093BA020E944B09E3
:102190008091BA029091BB0224C085E692E00E9431
:1021A00098088091BC029091BD028A3FAFEF9A07D8
:1021B000A4F001970CC08DE792E00E9498088091EE
:1021C000BC029091BD02873091053CF4019690933A
:1021D000BD028093BC020E942C098091BC029091A8
:1021E000BD0208960E947A0638CD65E972E08FE755
:1021F00093E00E9483084091260350912703609149
:1022000028037091290320E18FE793E00E94AB0837
:1022100064E371E08FE793E00E9483081ECD23E022
:1022200030E03093230320932203C7CC80917404C1
:10223000893370F1828193818957910983359105A2
:1022400008F448C125C0D90112966D917C9113976D
:10225000665171096131710508F068C1D701C60185
:10226000880F991FAA1FBB1F6C017D016894C0F8DD
:102270004E5F5F4F2C5F3F4F4B33510509F439C11F
:10228000D9016D917C916A50710969307105D8F25C
:1022900080917404823231F4828193810A97099784
:1022A00008F454C18281938189579109833591053E
:1022B000D0F4809174048132B0F084819581CA9702
:1022C000899788F49F012A5F3F4FC12CD12C76015A
:1022D00043E050E0D9016D917C916A5071096930F9
:1022E000710508F46AC1828193818C549109C59764
:1022F00078F480917404843031F4848195818097DE
:10230000479708F441C180917404843408F09EC159
:1023100080917404863460F1828193810C970B97CD
:1023200008F4E3C125C0D90112966D917C911397F1
:102330006E5171096731710508F00DC2D701C601F0
:10234000880F991FAA1FBB1F6C017D016894C0F8FC
:102350004E5F5F4F2C5F3F4F4534510509F4E0C19C
:10236000D9016D917C916C5071096B307105D8F277
:1023700080917404883540F0828193818558910959
:102380008B35910508F4F7C1809174048032E1F433
:102390008281938106970697B8F484819581099785
:1023A000099790F49F012A5F3F4FBF01625C7F4F06
:1023B000C12CD12C7601D9014D915C914650510927
:1023C0004630510508F4F3C120912E0330912F03BC
:1023D00038872F83263031050CF43FCC8F010A5FFC
:1023E0001F4F83E090E09E838D8395ECC92E9DE97D
:1023F000D92E9CE1E92E91E8F92ED8016D917C91BE
:10240000F8013497A080B18080E090E00E946714CA
:1024100069877A878B879C87B50180E090E00E946E
:1024200067144B015C012DEC3CEC4CE45FE30E9433
:10243000C8149B01AC0169857A858B859C850E94B7
:10244000621487FD19C02DEC3CEC4CE45FE3698518
:102450007A858B859C850E94C8149B01AC01C501BF
:10246000B4010E946214E82F880FFF0BEE27FF0FC4
:10247000EE1FFF27319602C0E0E0F0E0A7019601D1
:1024800063E971E080E091E00E949C156F01FF0F0D
:10249000EE08FF08C626D726E826F926ED81FE813C
:1024A0003196FE83ED830E5F1F4F2F813885E21733
:1024B000F30709F0A2CFC0922603D0922703E0923F
:1024C0002803F092290330922B0320922A038FEFE6
:1024D0009FEF4ACD84819581CA97899708F0D8CE1D
:1024E0009F012A5F3F4FC12CD12C760143E050E081
:1024F000C7CE9F012A583F4FD9012D913C912A50B8
:1025000031092930310508F0C3CE2CE130E0309399
:102510002B0320932A03C0922603D0922703E09234
:102520002803F09229038AE090E01ECDD90112968B
:102530006D917C911397665071096730710508F0B1
:10254000A7CECC0CDD1CEE1CFF1C92CE2091740497
:10255000CF01820F911D820F911DDC0112978D9189
:102560009C910A97099708F09DCE10922B03109228
:102570002A03409226035092270360922803709208
:102580002903E6E0F0E014C0868197810997099756
:1025900008F0B9CE10922B0310922A034092260322
:1025A000509227036092280370922903E7E0F0E03D
:1025B000F0932303E093220300CBD90112966D918F
:1025C0007C911397665171096131710578F5D701D6
:1025D000C601880F991FAA1FBB1F6C017D0168945B
:1025E000C0F84E5F5F4F2C5F3F4F4332510509F0FB
:1025F00071CE9F012A5B3F4FD9012D913C912A500A
:1026000031092930310508F06ECEE0E1F0E0F093B9
:102610002B03E0932A03C0922603D0922703E09273
:102620002803F092290326E030E0FBCDD901129671
:102630006D917C911397665071096730710508F0B0
:1026400052CECC0CDD1CEE1CFF1CCBCF84819581BF
:1026500089549109C39708F05BCE9F012A5F3F4FD1
:10266000BF016A577F4FC12CD12C7601D9014D9102
:102670005C91495051094930510508F049CED901C2
:1026800012964D915C911397465151094131510574
:10269000E0F4D701C601880F991FAA1FBB1F6C0168
:1026A0007D016894C0F82C5F3F4F26173707F1F67D
:1026B00030922B0320922A03C0922603D092270344
:1026C000E0922803F092290371CFD90112964D911F
:1026D0005C911397465051094730510508F018CEC8
:1026E000CC0CDD1CEE1CFF1CDECF8481958109978C
:1026F000099708F03DCE868197818C974F9708F017
:1027000037CE8085918589974D9708F031CE9F010E
:10271000265F3F4FC12CD12C760145E050E020CE02
:102720009F0126573F4FD9012D913C912C503109E3
:102730002B30310508F01CCE30922B0320922A0357
:10274000C0922603D0922703E0922803F092290337
:1027500088E090E009CCD90112966D917C91139795
:10276000695071096930710508F002CECC0CDD1C8E
:10277000EE1CFF1CEDCD84819581825491098E97CA
:1027800008F002CE8F01045C1F4F8DE190E020E045
:1027900030E0CACBD8014D915C914851510942318A
:1027A000510510F0CB01C8CB220F331FBACBD90192
:1027B00012964D915C91139749515109433151053E
:1027C00008F5D701C601880F991FAA1FBB1F6C010E
:1027D0007D016894C0F82C5F3F4F2617370709F03A
:1027E000EACD2EE030E030932B0320932A03C092F1
:1027F0002603D0922703E0922803F09229038FE06A
:1028000090E0B2CBD90112964D915C91139749504B
:1028100051094930510508F0D7CDCC0CDD1CEE1C18
:10282000FF1CD9CFEFE7F3E01382128288EE93E02A
:10283000A0E0B0E084839583A683B78325E031E0F0
:102840003183208325EC30E03587248724EC30E089
:102850003787268720EC30E0318B208B21EC30E06D
:10286000338B228B22EC30E0358B248B26EC30E04E
:10287000378B268B118E128E138E148EECE1F4E0C2
:102880001682178210861186128613861486158684
:1028900016861786108A118A128A138A148A158A54
:1028A000E4E6F4E01382128284839583A683B783DF
:1028B00087E191E091838083E0E7F4E083E0818326
:1028C000138208950E94A41408F481E00895E89406
:1028D00009C097FB3EF490958095709561957F4F68
:1028E0008F4F9F4F9923A9F0F92F96E9BB27939516
:1028F000F695879577956795B795F111F8CFFAF426
:10290000BB0F11F460FF1BC06F5F7F4F8F4F9F4F56
:1029100016C0882311F096E911C0772321F09EE8B4
:10292000872F762F05C0662371F096E8862F70E01A
:1029300060E02AF09A95660F771F881FDAF7880FF4
:102940009695879597F90895990F0008550FAA0B4A
:10295000E0E8FEEF16161706E807F907C0F01216B2
:102960001306E407F50798F0621B730B840B950BB5
:1029700039F40A2661F0232B242B252B21F408950A
:102980000A2609F4A140A6958FEF811D811D0895A7
:102990000E94DB140C944C150E943E1538F00E94E6
:1029A000451520F0952311F00C9435150C943B152A
:1029B00011240C9480150E945D1570F3959FC1F34E
:1029C000950F50E0551F629FF001729FBB27F00DDD
:1029D000B11D639FAA27F00DB11DAA1F649F662732
:1029E000B00DA11D661F829F2227B00DA11D621F81
:1029F000739FB00DA11D621F839FA00D611D221F3B
:102A0000749F3327A00D611D231F849F600D211D1E
:102A1000822F762F6A2F11249F5750409AF0F1F0A1
:102A200088234AF0EE0FFF1FBB1F661F771F881F0A
:102A300091505040A9F79E3F510580F00C943515F8
:102A40000C9480155F3FE4F3983ED4F38695779518
:102A50006795B795F795E7959F5FC1F7FE2B880FB0
:102A6000911D9695879597F9089597F99F6780E846
:102A700070E060E008959FEF80EC089500240A94D0
:102A80001616170618060906089500240A94121649
:102A90001306140605060895092E0394000C11F47C
:102AA000882352F0BB0F40F4BF2B11F460FF04C029
:102AB0006F5F7F4F8F4F9F4F089557FD9058440F82
:102AC000551F59F05F3F71F04795880F97FB991F8D
:102AD00061F09F3F79F0879508951216130614064A
:102AE000551FF2CF4695F1DF08C0161617061806D7
:102AF000991FF1CF86957105610508940895E894B2
:102B0000BB2766277727CB0197F90895F999FECF60
:102B100092BD81BDF89A992780B50895262FF9991D
:102B2000FECF1FBA92BD81BD20BD0FB6F894FA9AB0
:102B3000F99A0FBE01960895DB018F939F930E942F
:102B4000ED15BF91AF91A29F800D911DA39F900D98
:102B5000B29F900D11240895A1E21A2EAA1BBB1B4F
:102B6000FD010DC0AA1FBB1FEE1FFF1FA217B30759
:102B7000E407F50720F0A21BB30BE40BF50B661F6F
:102B8000771F881F991F1A9469F760957095809533
:102B900090959B01AC01BD01CF010895052E97FBD7
:102BA0001EF400940E94E51557FD07D00E94AC1555
:102BB00007FC03D04EF40C94E515509540953095E4
:102BC00021953F4F4F4F5F4F089590958095709599
:102BD00061957F4F8F4F9F4F08950E94F815A59FD5
:102BE000900DB49F900DA49F800D911D1124089508
:102BF000A29FB001B39FC001A39F700D811D11243E
:102C0000911DB29F700D811D1124911D0895505882
:102C1000BB27AA270E941F160C944C150E943E1534
:102C200038F00E94451520F039F49F3F19F426F43E
:102C30000C943B150EF4E095E7FB0C943515E92F49
:102C40000E945D1558F3BA1762077307840795074A
:102C500020F079F4A6F50C947F150EF4E0950B2E78
:102C6000BA2FA02D0B01B90190010C01CA01A001DE
:102C70001124FF27591B99F0593F50F4503E68F139
:102C80001A16F040A22F232F342F4427585FF3CF7A
:102C9000469537952795A795F0405395C9F77EF44B
:102CA0001F16BA0B620B730B840BBAF09150A1F094
:102CB000FF0FBB1F661F771F881FC2F70EC0BA0F1A
:102CC000621F731F841F48F4879577956795B795A2
:102CD000F7959E3F08F0B0CF9395880F08F099279D
:102CE000EE0F9795879508950E9488160C944C15C1
:102CF0000E94451558F00E943E1540F029F45F3FB0
:102D000029F00C94351551110C9480150C943B1539
:102D10000E945D1568F39923B1F3552391F3951B38
:102D2000550BBB27AA2762177307840738F09F5FEC
:102D30005F4F220F331F441FAA1FA9F335D00E2E59
:102D40003AF0E0E832D091505040E695001CCAF7C6
:102D50002BD0FE2F29D0660F771F881FBB1F261789
:102D600037074807AB07B0E809F0BB0B802DBF0160
:102D7000FF2793585F4F3AF09E3F510578F00C942F
:102D800035150C9480155F3FE4F3983ED4F3869597
:102D900077956795B795F7959F5FC9F7880F911D50
:102DA0009695879597F90895E1E0660F771F881F3C
:102DB000BB1F621773078407BA0720F0621B730BEF
:102DC000840BBA0BEE1F88F7E09508950E94ED166C
:102DD0006894B1110C94801508950E94651588F0CF
:102DE0009F5798F0B92F9927B751B0F0E1F0660FCF
:102DF000771F881F991F1AF0BA95C9F714C0B13010
:102E000091F00E947F15B1E008950C947F15672F13
:102E1000782F8827B85F39F0B93FCCF3869577953E
:102E20006795B395D9F73EF4909580957095619527
:102E30007F4F8F4F9F4F0895FA01EE0FFF1F30967F
:102E400021053105A1F16115710561F48038BFE3F9
:102E50009B0749F168949038810561F08038BFEF95
:102E60009B0741F099234AF5FF3FE1053105210514
:102E700019F1E8940894E795D901AA2329F4AB2F16
:102E8000BE2FF85FD0F310C0FF5F70F4A695E0F797
:102E9000F73950F019F0FF3A38F49F779F930DD02F
:102EA0000F9007FC9058089546F00C943B1560E095
:102EB00070E080E89FE308954FE79F775F934F931B
:102EC0003F932F930E9417182F913F914F915F913D
:102ED0000E94C8140C94741729F416F00C9435153C
:102EE0000C947F150C943B150E946515A8F3963839
:102EF000A0F707F80F92E8942BE33AEA48EB5FE774
:102F00000E94DE140F920F920F924DB75EB70F9290
:102F10000E945F18E8E6F0E00E94A6174F915F91CB
:102F2000EF91FF91E595EE1FFF1F49F0FE57E06816
:102F30004427EE0F441FFA95E1F74195550B0E9487
:102F4000D9170F9007FE0C94CD170895DF93CF93F8
:102F50001F930F93FF92EF92DF927B018C01689495
:102F600006C0DA2EEF010E94DB14FE01E894A59161
:102F70002591359145915591A6F3EF010E941F16B9
:102F8000FE019701A801DA9469F7DF90EF90FF90B6
:102F90000F911F91CF91DF9108959B01AC0160E0EB
:102FA00070E080E89FE30C9474160C9435150C9433
:102FB00093180E946515D8F39923C9F3940F511DF6
:102FC000A3F39150504094F059F0882332F0660FEB
:102FD000771F881F91505040C1F79E3F51052CF735
:102FE000880F911D9695879597F908955F3FACF0EE
:102FF000983E9CF0BB27869577956795B79508F422
:10300000B1609395C1F7BB0F58F711F460FFE8CF9B
:103010006F5F7F4F8F4F9F4FE3CF0C94801516F05B
:103020000C9493180C943B1568940C9435150E94DD
:103030006515A8F39923C1F3AEF3DF93CF931F93E4
:103040000F93FF92C92FDD2788232AF02197660F5F
:10305000771F881FDAF720E030E040E85FEB9FE35E
:10306000883920F0803E38F021968F770E9408162C
:10307000E0E9F0E004C00E940816EDEBF0E00E94E9
:10308000A6178B01BE01EC01FB2E6F5771097595D8
:10309000771F880B990B0E94691428E132E741E3FE
:1030A0005FE30E94DB14AF2D9801AE01FF900F91FA
:1030B0001F91CF91DF910E941F160C944C15FA01BD
:1030C000DC01AA0FBB1F9B01AC01BF5728F42227CC
:1030D00033274427507820C0B75190F4AB2F0024F9
:1030E000469537952795011CA395D2F3002071F0E2
:1030F000220F331F441FB395DAF30ED00C9407163A
:1031000061307105A0E88A07B94630F49B01AC0133
:103110006627772788279078309621F0208331839F
:103120004283538308959F3F31F0915020F4879557
:1031300077956795B795880F911D9695879597F91F
:10314000089597FB072E16F4009407D077FD09D059
:103150000E94FB1807FC05D03EF4909581959F4F87
:103160000895709561957F4F08950E94F815332357
:1031700012F48A1B9B0B0C94BF180E94F815B7FF22
:103180000895821B930B08950F93083090F0982FA9
:10319000872F762F652F542F432F322F2227085049
:1031A000F4CF220F331F441F551F661F771F881F40
:1031B000991F0A95B2F70F91089597FB10F816948E
:1031C00000080F93083098F00850232F342F452F14
:1031D000562F672F782F892F902DF4CF0594979530
:1031E00087957795679557954795379527950A95CC
:1031F000AAF70F910895AA1BBB1B51E107C0AA1F94
:10320000BB1FA617B70710F0A61BB70B881F991F87
:103210005A95A9F780959095BC01CD010895EE0FC0
:10322000FF1F0590F491E02D099481E090E0F8945F
:103230000C942A19FB01DC018D9101908019011079
:10324000D9F3990B0895FB01DC0101900D92002048
:08325000E1F70895F894FFCFA7
:10325800010000000035012007CD007C01FE00DCE4
:1032680000F000000000007E024E02AE0228024676
:103278000237022902564D4450565F317C315F5661
:103288004D4450560D0A0053657269616C206D6F8C
:103298006E69746F722072656164792E00414554BD
:1032A80020312E30005374617274696E6720505457
:1032B800323431332E2E2E2E0020506F7765722037
:1032C800202020202020202020202000537065610D
:1032D8006B65722052656C6179204F46462E00500E
:1032E8006F7765722052656C6179204F46462E00D3
:1032F800506F7765722052656C6179204F4E2E00B1
:10330800537065616B65722052656C6179204F4E10
:103318002E00204D6F6465202020202020202020B2
:103328002020202000204D7574652020202020209A
:1033380020202020200020506C61792F5061757367
:103348006520202020202020202000205072657633
:10335800696F7573202020202020202000204E65D2
:10336800787420202020200020564F4C2D2020202B
:1033780020202020202020200020564F4C2B2020C9
:10338800202020202020202020002042617373204C
:103398002D20202020202020202020202020200038
:1033A8002042617373202B20202020202020202001
:1033B800202020200020547265626C65202D20207A
:1033C800202020202020202020202020002054728F
:1033D80065626C65202B20202020202020202020C2
:1033E800202020200020756E6B6E6F776E2062752E
:0833F80074746F6E20202000A8
:00000001FF
